:020000040800F2
:1000000000800120B50D000805060008070600085D
:10001000090600080B0600080D0600080000000095
:100020000000000000000000000000000F060008B3
:10003000110600080000000013060008150600085D
:10004000050E0008050E0008050E0008050E000844
:10005000050E0008050E0008050E0008050E000834
:10006000050E0008050E0008050E0008050E000824
:10007000050E0008050E0008050E0008050E000814
:10008000050E0008050E0008050E0008000000001F
:10009000000000000000000000000000050E000845
:1000A000050E0008050E0008050E0008050E0008E4
:1000B000050E0008050E0008050E0008050E0008D4
:1000C000050E0008050E0008050E0008050E0008C4
:1000D000050E0008050E0008050E000800000000CF
:1000E000050E0008050E0008050E000800000000BF
:1000F000000000000000000000000000050E0008E5
:1001000000000000050E0008050E0008050E00089E
:1001100000000000000000000000000000000000DF
:10012000050E0008050E0008050E0008050E000863
:10013000050E0008000000000000000000000000A4
:10014000000000000000000000000000050E000894
:10015000050E0008050E0008050E0008050E000833
:10016000050E0008050E0008000000000000000059
:10017000000000000000000000000000000000007F
:1001800000000000050E0008000000000000000054
:04019000050E000850
:1001940010B5054C237833B9044B13B10448AFF3BD
:1001A40000800123237010BD0C000020000000001B
:1001B400600E000808B5034B1BB103490348AFF3B5
:1001C400008008BD0000000010000020600E000840
:1001D40053B94AB9002908BF00281CBF4FF0FF31AA
:1001E4004FF0FF3000F072B9ADF1080C6DE904CEA8
:1001F40000F006F8DDF804E0DDE9022304B07047FE
:100204002DE9F047089E04468846002B4BD18A42CC
:10021400154667D9B2FA82F24AB1C2F1200701FA4F
:1002240002F320FA07F7954047EA030894404FEA9F
:10023400154E230CB8FBFEF71FFA85FC0EFB17883E
:1002440043EA084307FB0CF1994209D9EB1807F17B
:10025400FF3080F01B81994240F21881023F2B4409
:100264005B1AA4B2B3FBFEF00EFB103344EA034462
:1002740000FB0CFCA44509D92C1900F1FF3380F0D4
:100284000781A44540F2048102382C4440EA074027
:10029400A4EB0C0400271EB1D4400023C6E900439C
:1002A4003946BDE8F0878B4209D9002E00F0EB8077
:1002B4000027C6E9000138463946BDE8F087B3FA9D
:1002C40083F7002F47D18B4202D3824200F2FA8097
:1002D400841A61EB030301209846002EE0D0C6E99E
:1002E4000048DDE702B9FFDEB2FA82F2002A40F0EC
:1002F4008F80491B4FEA154E1FFA85F80127B1FB81
:10030400FEFC230C0EFB1C1143EA014308FB0CF119
:10031400994207D9EB180CF1FF3002D2994200F24E
:10032400CD808446591AA3B2B1FBFEF00EFB101423
:1003340043EA044408FB00F8A04507D92C1900F14E
:10034400FF3302D2A04500F2B6801846A4EB08049D
:1003540040EA0C409FE7C7F1200CBB4022FA0CFE98
:100364004EEA030E01FA07F420FA0CF521FA0CF315
:100374004FEA1E482543B3FBF8F92C0C08FB19334C
:100384001FFA8EFA44EA034309FB0AF49C4202FA78
:1003940007F200FA07F10BD91EEB030309F1FF3052
:1003A40080F087809C4240F28480A9F10209734462
:1003B4001B1BADB2B3FBF8F008FB103345EA034452
:1003C40000FB0AFAA24508D91EEB040400F1FF332E
:1003D4006BD2A24569D90238744440EA0940A0FBB3
:1003E4000289A4EB0A044C45C2464B4654D351D06F
:1003F400002E69D0B1EB0A0564EB030404FA0CFC8B
:10040400FD40FC404CEA0505C6E90054002747E7D7
:10041400C2F1200320FA03F7954001FA02F021FA11
:1004240003F34FEA154E3843010CB3FBFEF71FFAF2
:1004340085F80EFB173341EA034107FB08F38B42AF
:1004440004FA02F407D9691807F1FF3C2FD28B4252
:100454002DD9023F2944CB1A81B2B3FBFEF00EFB27
:10046400103341EA034100FB08F38B4207D96918B2
:1004740000F1FF3C17D28B4215D902382944C91A1E
:1004840040EA07473BE73746304609E70746E7E6D1
:100494001846FBE64145ABD2B8EB020A69EB0E0203
:1004A40001381346A4E76046E9E7184695E767462E
:1004B400D1E781467CE702382C4447E7ACF1020CD3
:1004C4002B442FE7384608E73746E9E6704700BF74
:1004D40030B595B03022002108A800F0B7FC002404
:1004E4000394049405940694079401941B4B1A6C8A
:1004F40042F080521A641B6C03F080530193019BF9
:100504000294174A136823F4404343F400431360EE
:10051400136803F440430293029B022508950123C8
:100524000B9310230C930E950F9410934FF4A87310
:100534001193042312930723139308A800F026F9B8
:100544000F230393049505944FF480530693079463
:10055400294603A800F07CFB15B030BD00380240EA
:100564000070004008B500F089F8FFF7B1FF104BA8
:100574001A6B42F001021A630E4A116841F40061D9
:100584001160116A41F4801111621A6C42F0010287
:100594001A644FF0804301229A620749D96200210C
:1005A4005962602199611A62044959631A60FEE72D
:1005B40000380240000002407F9B82073F6F4001E9
:1005C40000B583B0002100910C4B5A6C42F4804278
:1005D4005A645A6C02F480420092009A01911A6C97
:1005E40042F080521A641B6C03F080530193019B08
:1005F400072000F06FF803B05DF804FB00380240F8
:100604007047FEE7FEE7FEE7FEE770477047704776
:1006140008B500F04DF808BD054BD3F8882042F426
:100624007002C3F888204FF000629A60704700BFE0
:1006340000ED00E010B504460E4B18784FF47A73C1
:10064400B3FBF0F30C4A1068B0FBF3F000F088F849
:1006540068B90F2C01D901200AE0002221464FF08D
:10066400FF3000F049F8034B5C60002000E00120FB
:1006740010BD00BF040000200000002008B50B4B93
:100684001A6842F400721A601A6842F480621A60AE
:100694001A6842F480721A60032000F01BF80020EC
:1006A400FFF7C8FFFFF78CFF002008BD003C0240A5
:1006B400034A1168034B1B780B441360704700BF57
:1006C4002800002004000020014B1868704700BF78
:1006D40028000020074AD36823F4E0631B041B0CA2
:1006E400000200F4E060184340F0BF6040F40030C2
:1006F400D060704700ED00E030B4174BDB68C3F303
:100704000223C3F10704042C28BF04241D1D062D55
:1007140018D9033B4FF0FF3505FA04F421EA04012C
:10072400994005FA03F322EA0303194300280BDB7B
:100734000901C9B200F1604000F5614080F800137E
:1007440030BC70470023E5E700F00F000901C9B28F
:10075400024B1954F4E700BF00ED00E014ED00E093
:100764000138B0F1807F0AD2064B5860064AF02166
:1007740082F823100020986007221A607047012035
:10078400704700BF10E000E000ED00E0002800F03A
:10079400E48170B582B00446036813F0010F3BD0C6
:1007A400A74B9B6803F00C03042B2CD0A44B9B6831
:1007B40003F00C03082B21D06368B3F5803F4FD0BE
:1007C400B3F5A02F52D09E4B1A6822F480321A60DF
:1007D4001A6822F480221A606368002B50D0FFF755
:1007E40073FF0546964B1B6813F4003F14D1FFF7C3
:1007F4006BFF401B6428F5D90320B3E1904B5B6881
:1008040013F4800FD8D08E4B1B6813F4003F03D031
:100814006368002B00F0A381236813F0020F55D006
:10082400874B9B6813F00C0F3ED0854B9B6803F0FD
:100834000C03082B33D0E368002B68D0814B0122D2
:100844001A60FFF741FF05467D4B1B6813F0020F4A
:1008540054D1FFF739FF401B0228F5D9032081E169
:10086400774A136843F480331360B5E7744B1A680E
:1008740042F480221A601A6842F480321A60ABE7AC
:10088400FFF722FF05466E4B1B6813F4003FC3D0ED
:10089400FFF71AFF401B6428F5D9032062E1684B77
:1008A4005B6813F4800FC6D1654B1B6813F0020F0D
:1008B40004D0E368012B01D0012053E1604A13689E
:1008C40023F0F803216943EAC1031360236813F09A
:1008D400080F40D0636963B35B4B01221A60FFF7D2
:1008E400F3FE0546564B5B6F13F0020F33D1FFF74F
:1008F400EBFE401B0228F5D9032033E1504A13686C
:1009040023F0F803216943EAC1031360DEE74D4B8A
:1009140000221A60FFF7D8FE0546494B1B6813F006
:10092400020FD3D0FFF7D0FE401B0228F5D90320D5
:1009340018E1454B00221A60FFF7C6FE0546404BFE
:100944005B6F13F0020F06D0FFF7BEFE401B0228B8
:10095400F5D9032006E1236813F0040F79D0384B4E
:100964001B6C13F0805F33D100230193344B1A6C5A
:1009740042F080521A641B6C03F080530193019B74
:100984000125324B1B6813F4807F23D0A368012B0D
:1009940034D0052B38D02A4B1A6F22F001021A6783
:1009A4001A6F22F004021A67A368002B36D0FFF7EF
:1009B4008BFE0646224B1B6F13F0020F48D1FFF744
:1009C40083FE801B41F288339842F3D90320C9E0A7
:1009D4000025D6E71D4A136843F480731360FFF7BC
:1009E40073FE0646194B1B6813F4807FCED1FFF7C4
:1009F4006BFE801B0228F5D90320B3E0104A136F65
:100A040043F001031367CFE70D4B1A6F42F0040262
:100A14001A671A6F42F001021A67C5E7FFF754FE1E
:100A24000646074B1B6F13F0020F11D0FFF74CFE65
:100A3400801B41F288339842F3D9032092E000BF2F
:100A44000038024000004742800E474200700040D8
:100A5400EDB9A369002B00F08480454A926802F046
:100A64000C02082A51D0022B17D0424B00221A60E4
:100A7400FFF72AFE04463E4B1B6813F0007F42D06A
:100A8400FFF722FE001B0228F5D903206AE0384A4A
:100A9400136C23F080531364DBE7364B00221A6097
:100AA400FFF712FE0546324B1B6813F0007F06D099
:100AB400FFF70AFE401B0228F5D9032052E0E36940
:100AC400226A1343626A43EA8213A26A5208013A11
:100AD40043EA0243E26A43EA0263254A5360254B30
:100AE40001221A60FFF7F0FD0446214B1B6813F046
:100AF400007F06D1FFF7E8FD001B0228F5D903208B
:100B040030E000202EE000202CE0012B2CD0184BEC
:100B14005B6803F48001E269914201D0012021E085
:100B240003F03F02216A8A4201D001201AE0616A7F
:100B340047F6C0721A408A4201D0012012E003F441
:100B44004032A16A8A4201D001200BE003F07063B5
:100B5400E26A93420AD0012004E001207047012098
:100B640000E0002002B070BD0120FBE70020F9E79F
:100B74000038024060004742324B9B6803F00C038C
:100B8400042B5CD0082B01D02F4870472DE9F04B83
:100B94002C4B5A6802F03F025B6813F4800F2BD091
:100BA400284B5B68C3F388131E4600275C010025AD
:100BB400E41A65EB0705A90141EA9461A001001B51
:100BC40061EB0501CB0043EA5073C400A01943EB69
:100BD40007014B0243EAD05344022046194600233E
:100BE400FFF7F6FA174B5B68C3F3014301335B006D
:100BF400B0FBF3F0BDE8F08B124B5B68C3F38813D2
:100C04001E4600275C010025E41A65EB0705A901CF
:100C140041EA9461A001001B61EB0501CB0043EAAA
:100C24005073C400A01943EB07018B0243EA9053AD
:100C34008402204619460023FFF7CAFAD2E7034884
:100C4400704700BF003802400024F40000127A000C
:100C5400002800F09E8070B50446504B1B6803F0DA
:100C64000F038B4209D2CBB24C4A1370136803F0C2
:100C74000F038B4201D0012070BD236813F0020FD3
:100C840017D013F0040F04D0454A936843F4E0539B
:100C94009360236813F0080F04D0414A936843F427
:100CA400604393603E4A936823F0F003A0680343D3
:100CB40093600D46236813F0010F32D06368012B53
:100CC40021D09A1E012A25D9354A126812F0020F42
:100CD40061D033498A6822F0030213438B60FFF723
:100CE400F3FC06462E4B9B6803F00C036268B3EBDF
:100CF400820F16D0FFF7E8FC801B41F2883398423C
:100D0400F0D90320B8E7264A126812F4003FE0D174
:100D14000120B1E7224A126812F0007FD9D10120E4
:100D2400AAE71E4B1B6803F00F03AB4209D9EAB2D2
:100D34001A4B1A701B6803F00F03AB4201D0012059
:100D44009AE7236813F0040F06D0154A936823F436
:100D5400E053E1680B439360236813F0080F07D056
:100D64000F4A936823F46043216943EAC103936003
:100D7400FFF702FF0A4B9B68C3F30313094AD35CD2
:100D8400D840094B1860094B1868FFF753FC002042
:100D940072E70120704701206EE700BF003C02406B
:100DA40000380240780E00080000002008000020EF
:100DB400DFF834D0002103E00C4B5B58435004317E
:100DC4000B480C4B42189A42F6D30B4A02E000231C
:100DD40042F8043B094B9A42F9D3FFF71DFC00F09B
:100DE40011F8FFF7BFFB704700800120A00E000838
:100DF400000000200C0000200C0000202C0000202B
:100E0400FEE7000070B50D4E0D4CA41BA410002588
:100E1400A54209D10B4E0C4C00F020F8A41BA410E1
:100E24000025A54205D170BD56F8253098470135F7
:100E3400EEE756F8253098470135F2E7980E00089A
:100E4400980E0008980E00089C0E00080244034601
:100E5400934200D1704703F8011BF9E7F8B500BFCE
:100E6400F8BC08BC9E467047F8B500BFF8BC08BC87
:040E74009E467047DF
:100E78000000000000000000010203040607080942
:080E8800000000000102030458
:080E900074F3FF7F0100000074
:040E9800B901000894
:040E9C0095010008B4
:0C0EA0000024F40001000000100000001D
:0400000508000DB52D
:00000001FF
