:020000040800F2
:1000000000800120811900081D1100081F1100083F
:10001000211100082311000825110008000000002C
:100020000000000000000000000000002711000890
:1000300029110008000000002B1100082D110008F4
:10004000D1190008D1190008D1190008D1190008E8
:10005000D1190008D1190008D1190008D1190008D8
:10006000D1190008D1190008D1190008D1190008C8
:10007000D1190008D1190008D1190008D1190008B8
:10008000D1190008D1190008D1190008000000009A
:10009000000000000000000000000000D11900086E
:1000A000D1190008D1190008D1190008D119000888
:1000B000D1190008D1190008D1190008D119000878
:1000C000D1190008D1190008D1190008D119000868
:1000D000D1190008D1190008D1190008000000004A
:1000E000D1190008D1190008D1190008000000003A
:1000F000000000000000000000000000D11900080E
:1001000000000000D1190008D1190008D119000819
:1001100000000000000000000000000000000000DF
:10012000D1190008D1190008D1190008D119000807
:10013000D1190008000000000000000000000000CD
:10014000000000000000000000000000D1190008BD
:10015000D1190008D1190008D1190008D1190008D7
:10016000D1190008D11900080000000000000000AB
:10017000000000000000000000000000000000007F
:1001800000000000D119000800000000000000007D
:04019000D119000879
:1001A00010B5054C237833B9044B13B10448AFF3B1
:1001B00000800123237010BDE0010020000000003A
:1001C0008440000808B5034B1BB103490348AFF353
:1001D000008008BD00000000E40100208440000809
:1001E00081F0004102E000BF83F0004330B54FEAE8
:1001F00041044FEA430594EA050F08BF90EA020F55
:100200001FBF54EA000C55EA020C7FEA645C7FEAE7
:10021000655C00F0E2804FEA5454D4EB5555B8BF0A
:100220006D420CDD2C4480EA020281EA030382EA7B
:10023000000083EA010180EA020281EA0303362D0D
:1002400088BF30BD11F0004F4FEA01314FF4801CE0
:100250004CEA113102D0404261EB410113F0004FF2
:100260004FEA03334CEA133302D0524263EB4303A9
:1002700094EA050F00F0A780A4F10104D5F1200E47
:100280000DDB02FA0EFC22FA05F2801841F10001A2
:1002900003FA0EF2801843FA05F359410EE0A5F176
:1002A00020050EF1200E012A03FA0EFC28BF4CF0A7
:1002B000020C43FA05F3C01851EBE37101F000455D
:1002C00007D54FF0000EDCF1000C7EEB00006EEB6A
:1002D0000101B1F5801F1BD3B1F5001F0CD34908F4
:1002E0005FEA30004FEA3C0C04F101044FEA44524B
:1002F00012F5800F80F09A80BCF1004F08BF5FEAD2
:10030000500C50F1000041EB045141EA050130BDB1
:100310005FEA4C0C404141EB010111F4801FA4F154
:100320000104E9D191F0000F04BF01460020B1FAA9
:1003300081F308BF2033A3F10B03B3F120020CDAE1
:100340000C3208DD02F1140CC2F10C0201FA0CF0BF
:1003500021FA02F10CE002F11402D8BFC2F1200C24
:1003600001FA02F120FA0CFCDCBF41EA0C019040DA
:10037000E41AA2BF01EB0451294330BD6FEA040423
:100380001F3C1CDA0C340EDC04F11404C4F120020E
:1003900020FA04F001FA02F340EA030021FA04F320
:1003A00045EA030130BDC4F10C04C4F1200220FA77
:1003B00002F001FA04F340EA0300294630BD21FAB5
:1003C00004F0294630BD94F0000F83F4801306BF7B
:1003D00081F480110134013D4EE77FEA645C18BF6F
:1003E0007FEA655C29D094EA050F08BF90EA020F06
:1003F00005D054EA000C04BF1946104630BD91EAFE
:10040000030F1EBF0021002030BD5FEA545C05D100
:100410004000494128BF41F0004130BD14F580043F
:100420003CBF01F5801130BD01F0004545F0FE41B3
:1004300041F470014FF0000030BD7FEA645C1ABFE8
:10044000194610467FEA655C1CBF0B46024650EA1F
:10045000013406BF52EA033591EA030F41F400214B
:1004600030BD00BF90F0000F04BF0021704730B5D1
:100470004FF4806404F132044FF000054FF00001A6
:1004800050E700BF90F0000F04BF0021704730B567
:100490004FF4806404F1320410F0004548BF40423C
:1004A0004FF000013EE700BF42004FEAE2014FEA91
:1004B00031014FEA02701FBF12F07F4393F07F4F6C
:1004C00081F06051704732F07F4208BF704793F06F
:1004D0007F4F04BF41F40021704730B54FF4607482
:1004E00001F0004521F000411CE700BF50EA010285
:1004F00008BF704730B54FF000050AE050EA01022E
:1005000008BF704730B511F0004502D5404261EB9D
:1005100041014FF4806404F132045FEA915C3FF4DE
:10052000D8AE4FF003025FEADC0C18BF03325FEA7B
:10053000DC0C18BF033202EBDC02C2F1200300FA2C
:1005400003FC20FA02F001FA03FE40EA0E0021FA51
:1005500002F11444BDE600BF70B54FF0FF0C4CF43F
:10056000E06C1CEA11541DBF1CEA135594EA0C0FF1
:1005700095EA0C0F00F0DEF82C4481EA030621EA2C
:100580004C5123EA4C5350EA013518BF52EA033567
:1005900041F4801143F4801338D0A0FB02CE4FF019
:1005A0000005E1FB02E506F00042E0FB03E54FF049
:1005B0000006E1FB03569CF0000F18BF4EF0010E41
:1005C000A4F1FF04B6F5007F64F5407404D25FEA3D
:1005D0004E0E6D4146EB060642EAC62141EA5551F0
:1005E0004FEAC52040EA5E504FEACE2EB4F1FD0C32
:1005F00088BFBCF5E06F1ED8BEF1004F08BF5FEAB0
:10060000500E50F1000041EB045170BD06F0004661
:1006100046EA010140EA020081EA0301B4EB5C040E
:10062000C2BFD4EB0C0541EA045170BD41F4801106
:100630004FF0000E013C00F3AB8014F1360FDEBF2B
:10064000002001F0004170BDC4F10004203C35DA07
:100650000C341BDC04F11404C4F1200500FA05F38A
:1006600020FA04F001FA05F240EA020001F000422B
:1006700021F0004110EBD37021FA04F642EB0601A1
:100680005EEA430E08BF20EAD37070BDC4F10C04CB
:10069000C4F1200500FA04F320FA05F001FA04F28F
:1006A00040EA020001F0004110EBD37041F100017B
:1006B0005EEA430E08BF20EAD37070BDC4F1200586
:1006C00000FA05F24EEA020E20FA04F301FA05F2EE
:1006D00043EA020321FA04F001F0004121FA04F296
:1006E00020EA020000EBD3705EEA430E08BF20EA66
:1006F000D37070BD94F0000F0FD101F000464000A0
:1007000041EB010111F4801F08BF013CF7D041EA21
:10071000060195F0000F18BF704703F00046520025
:1007200043EB030313F4801F08BF013DF7D043EAF6
:100730000603704794EA0C0F0CEA135518BF95EAAC
:100740000C0F0CD050EA410618BF52EA4306D1D133
:1007500081EA030101F000414FF0000070BD50EA52
:10076000410606BF1046194652EA430619D094EADC
:100770000C0F02D150EA013613D195EA0C0F05D1C6
:1007800052EA03361CBF104619460AD181EA03011A
:1007900001F0004141F0FE4141F470014FF00000D2
:1007A00070BD41F0FE4141F4780170BD70B54FF06D
:1007B000FF0C4CF4E06C1CEA11541DBF1CEA1355ED
:1007C00094EA0C0F95EA0C0F00F0A7F8A4EB0504CF
:1007D00081EA030E52EA03354FEA013100F08880C6
:1007E0004FEA03334FF0805545EA131343EA12638F
:1007F0004FEA022245EA111545EA10654FEA002644
:100800000EF000419D4208BF964244F1FD0404F5FC
:10081000407402D25B084FEA3202B61A65EB030558
:100820005B084FEA32024FF480104FF4002CB6EB15
:10083000020E75EB030E22BFB61A754640EA0C0095
:100840005B084FEA3202B6EB020E75EB030E22BFD5
:10085000B61A754640EA5C005B084FEA3202B6EB16
:10086000020E75EB030E22BFB61A754640EA9C00D5
:100870005B084FEA3202B6EB020E75EB030E22BFA5
:10088000B61A754640EADC0055EA060E18D04FEA63
:10089000051545EA16754FEA06164FEAC30343EA03
:1008A00052734FEAC2025FEA1C1CC0D111F4801FD0
:1008B0000BD141EA00014FF000004FF0004CB6E7C9
:1008C00011F4801F04BF01430020B4F1FD0C88BF68
:1008D000BCF5E06F3FF6AFAEB5EB030C04BFB6EB73
:1008E000020C5FEA500C50F1000041EB045170BD66
:1008F0000EF0004E4EEA113114EB5C04C2BFD4EB93
:100900000C0541EA045170BD41F480114FF0000E16
:10091000013C90E645EA060E8DE60CEA135594EA92
:100920000C0F08BF95EA0C0F3FF43BAF94EA0C0F95
:100930000AD150EA01347FF434AF95EA0C0F7FF40A
:1009400025AF104619462CE795EA0C0F06D152EA5E
:1009500003353FF4FDAE1046194622E750EA410642
:1009600018BF52EA43067FF4C5AE50EA41047FF453
:100970000DAF52EA43057FF4EBAE12E753B94AB923
:10098000002908BF00281CBF4FF0FF314FF0FF3097
:1009900000F072B9ADF1080C6DE904CE00F006F874
:1009A000DDF804E0DDE9022304B070472DE9F047EB
:1009B000089E04468846002B4BD18A42154667D9CB
:1009C000B2FA82F24AB1C2F1200701FA02F320FA28
:1009D00007F7954047EA030894404FEA154E230C69
:1009E000B8FBFEF71FFA85FC0EFB178843EA0843A5
:1009F00007FB0CF1994209D9EB1807F1FF3080F0A1
:100A00001B81994240F21881023F2B445B1AA4B229
:100A1000B3FBFEF00EFB103344EA034400FB0CFC76
:100A2000A44509D92C1900F1FF3380F00781A445B2
:100A300040F2048102382C4440EA0740A4EB0C0445
:100A400000271EB1D4400023C6E900433946BDE863
:100A5000F0878B4209D9002E00F0EB800027C6E911
:100A6000000138463946BDE8F087B3FA83F7002F16
:100A700047D18B4202D3824200F2FA80841A61EBA2
:100A8000030301209846002EE0D0C6E90048DDE7C8
:100A900002B9FFDEB2FA82F2002A40F08F80491BD1
:100AA0004FEA154E1FFA85F80127B1FBFEFC230C17
:100AB0000EFB1C1143EA014308FB0CF1994207D9D4
:100AC000EB180CF1FF3002D2994200F2CD8084463F
:100AD000591AA3B2B1FBFEF00EFB101443EA044412
:100AE00008FB00F8A04507D92C1900F1FF3302D20A
:100AF000A04500F2B6801846A4EB080440EA0C407A
:100B00009FE7C7F1200CBB4022FA0CFE4EEA030E11
:100B100001FA07F420FA0CF521FA0CF34FEA1E480B
:100B20002543B3FBF8F92C0C08FB19331FFA8EFA96
:100B300044EA034309FB0AF49C4202FA07F200FA72
:100B400007F10BD91EEB030309F1FF3080F087801A
:100B50009C4240F28480A9F1020973441B1BADB290
:100B6000B3FBF8F008FB103345EA034400FB0AFA34
:100B7000A24508D91EEB040400F1FF336BD2A24555
:100B800069D90238744440EA0940A0FB0289A4EB09
:100B90000A044C45C2464B4654D351D0002E69D06E
:100BA000B1EB0A0564EB030404FA0CFCFD40FC40C5
:100BB0004CEA0505C6E90054002747E7C2F12003C7
:100BC00020FA03F7954001FA02F021FA03F34FEA05
:100BD000154E3843010CB3FBFEF71FFA85F80EFBE8
:100BE000173341EA034107FB08F38B4204FA02F48E
:100BF00007D9691807F1FF3C2FD28B422DD9023F4C
:100C00002944CB1A81B2B3FBFEF00EFB103341EA4C
:100C1000034100FB08F38B4207D9691800F1FF3C40
:100C200017D28B4215D902382944C91A40EA07471E
:100C30003BE73746304609E70746E7E61846FBE656
:100C40004145ABD2B8EB020A69EB0E0201381346FC
:100C5000A4E76046E9E7184695E76746D1E781468D
:100C60007CE702382C4447E7ACF1020C2B442FE719
:100C7000384608E73746E9E6704700BF034613F8F1
:100C8000012B002AFBD1181A013870470000000020
:100C900001F0FF01102A2BDB10F0070F08D010F82D
:100CA000013B013A8B422DD010F0070F42B3F6D131
:100CB000F0B441EA012141EA014122F007047FF04A
:100CC00000070023F0E80256083C85EA010586EAA1
:100CD000010685FA47F5A3FA87F586FA47F6A5FADD
:100CE00087F68EB9EED1F0BC01F0FF0102F00702E9
:100CF00032B110F8013B013A83EA010313B1F8D194
:100D00000020704701387047002D06BF3546033874
:100D1000073815F0010F07D1013015F4807F02BFAD
:100D2000013015F4C03F0130F0BC0138704700BFFE
:100D30004FF0FF3C06E000BF4FF0010C02E000BFA7
:100D40004FF0010C4DF804CD4FEA410C7FEA6C5C8A
:100D50004FEA430C18BF7FEA6C5C1BD001B050EA2D
:100D6000410C0CBF52EA430C91EA030F02BF90EA18
:100D7000020F0020704710F1000F91EA030F58BFD7
:100D8000994208BF90422CBFD8176FEAE37040F039
:100D9000010070474FEA410C7FEA6C5C02D150EAD7
:100DA000013C07D14FEA430C7FEA6C5CD6D152EA92
:100DB000033CD3D05DF8040B704700BF8446104657
:100DC00062468C461946634600E000BF01B5FFF756
:100DD000B7FF002848BF10F1000F01BD4DF808ED26
:100DE000FFF7F4FF0CBF012000205DF808FB00BFF7
:100DF0004DF808EDFFF7EAFF34BF012000205DF851
:100E000008FB00BF4DF808EDFFF7E0FF94BF01209D
:100E100000205DF808FB00BF4DF808EDFFF7CEFF9E
:100E200094BF012000205DF808FB00BF4DF808EDDD
:100E3000FFF7C4FF34BF012000205DF808FB00BFAE
:100E40004FEA410C7FEA6C5C02D150EA013C0AD1C6
:100E50004FEA430C7FEA6C5C02D152EA033C02D1B8
:100E60004FF0000070474FF0010070474FEA410219
:100E700012F5001215D211D56FF47873B3EB6252EC
:100E800012D94FEAC12343F0004343EA505311F013
:100E9000004F23FA02F018BF404270474FF00000A5
:100EA000704750EA013005D111F0004008BF6FF0E3
:100EB000004070474FF00000704700BF0F4B1A6BA7
:100EC00042F001021A631A6C42F400321A64A3F56C
:100ED00060531A6842F020021A601A6A42F4E06213
:100EE0001A62A3F5DE3341F217129A600822DA6023
:100EF000DA6842F40052DA60704700BF00380240FE
:100F0000034B1B6813F0800FFAD0014B58607047F9
:100F10000044004008B5FFF7F3FF08BD30B595B0B9
:100F20003022002108A800F07FFD002403940494DF
:100F300005940694079401941B4B1A6C42F080525E
:100F40001A641B6C03F080530193019B0294174AAF
:100F5000136823F4404343F400431360136803F41D
:100F600040430293029B0225089501230B93102313
:100F70000C930E950F9410934FF4A87311930423C0
:100F800012930723139308A800F0E8F90F230393A3
:100F9000049505944FF4805306930794294603A8BB
:100FA00000F03EFC15B030BD00380240007000403B
:100FB00008B500F037F9FFF7B1FF3F4A136B43F074
:100FC00001031363136C43F0010313644FF0804378
:100FD000012199623949D9624FF4D0419961312197
:100FE000996300215962196841F0010119601021CB
:100FF0001962536C43F480735364314B5A6842F462
:1010000000025A605A6822F480025A60A3F54073C5
:101010004FF08062DA6012225A634FF098529A6061
:101020009A6842F001029A60FFF748FF254B1B685F
:10103000002BFBD0234BDC6C234B1C602046FFF7BE
:1010400021FA15A3D3E90023FFF7B0FB14A3D3E9DA
:101050000023FFF781FA1D4BC3E9000112A3D3E976
:101060000023FFF7C1F812A3D3E90023FFF79EFB8B
:101070000022174BFFF7BAF802460B461549C1E9A3
:1010800000232146144801F033F94FF4FA6000F0D0
:10109000F5F8CBE7AFF300800000000000FEAF40A2
:1010A0006666666666660A4052B81E85EB51E83F82
:1010B0007B14AE47E17A643F003802407FDE800255
:1010C00000230140002001402002002010020020E7
:1010D0000000394018020020B840000800B583B075
:1010E000002100910C4B5A6C42F480425A645A6CB5
:1010F00002F480420092009A01911A6C42F08052F0
:101100001A641B6C03F080530193019B072000F0CD
:10111000C9F803B05DF804FB003802407047FEE7F1
:10112000FEE7FEE7FEE770477047704708B500F03E
:1011300093F808BD70B50D461646002404E0AFF3E1
:101140000080287001340135B442F8DB304670BDB0
:1011500070B51646002405E04D1C0878FFF7DAFE4E
:1011600001342946B442F7DB304670BD08B503466A
:101170000B4A126842B10A4A106803446A46934215
:1011800006D8074A136008BD054A06491160F2E710
:1011900000F020FC0C2303604FF0FF30F3E700BFAA
:1011A000FC010020300200204FF0FF3070474FF468
:1011B00000534B60002070470120704700207047AB
:1011C000054BD3F8882042F47002C3F888204FF012
:1011D00000629A60704700BF00ED00E010B5044661
:1011E0000E4B18784FF47A73B3FBF0F30C4A106887
:1011F000B0FBF3F000F09CF868B90F2C01D9012086
:101200000AE0002221464FF0FF3000F05DF8034B6A
:101210005C60002000E0012010BD00BF0400002041
:101220000000002008B50B4B1A6842F400721A60E7
:101230001A6842F480621A601A6842F480721A6076
:10124000032000F02FF80020FFF7C8FFFFF746FF4C
:10125000002008BD003C0240034A1168034B1B7884
:101260000B441360704700BF2402002004000020DC
:10127000014B1868704700BF2402002038B50446AF
:10128000FFF7F6FF0546B4F1FF3F02D0044B1B7891
:101290001C44FFF7EDFF401BA042FAD338BD00BF4E
:1012A00004000020074AD36823F4E0631B041B0CEE
:1012B000000200F4E060184340F0BF6040F40030EA
:1012C000D060704700ED00E030B4174BDB68C3F32B
:1012D0000223C3F10704042C28BF04241D1D062D7E
:1012E00018D9033B4FF0FF3505FA04F421EA040155
:1012F000994005FA03F322EA0303194300280BDBA4
:101300000901C9B200F1604000F5614080F80013A6
:1013100030BC70470023E5E700F00F000901C9B2B7
:10132000024B1954F4E700BF00ED00E014ED00E0BB
:101330000138B0F1807F0AD2064B5860064AF0218E
:1013400082F823100020986007221A60704701205D
:10135000704700BF10E000E000ED00E0002800F062
:10136000E48170B582B00446036813F0010F3BD0EE
:10137000A74B9B6803F00C03042B2CD0A44B9B6859
:1013800003F00C03082B21D06368B3F5803F4FD0E6
:10139000B3F5A02F52D09E4B1A6822F480321A6007
:1013A0001A6822F480221A606368002B50D0FFF77D
:1013B0005FFF0546964B1B6813F4003F14D1FFF7FF
:1013C00057FF401B6428F5D90320B3E1904B5B68BD
:1013D00013F4800FD8D08E4B1B6813F4003F03D05A
:1013E0006368002B00F0A381236813F0020F55D02F
:1013F000874B9B6813F00C0F3ED0854B9B6803F026
:101400000C03082B33D0E368002B68D0814B0122FA
:101410001A60FFF72DFF05467D4B1B6813F0020F86
:1014200054D1FFF725FF401B0228F5D9032081E1A5
:10143000774A136843F480331360B5E7744B1A6836
:1014400042F480221A601A6842F480321A60ABE7D4
:10145000FFF70EFF05466E4B1B6813F4003FC3D029
:10146000FFF706FF401B6428F5D9032062E1684BB3
:101470005B6813F4800FC6D1654B1B6813F0020F35
:1014800004D0E368012B01D0012053E1604A1368C6
:1014900023F0F803216943EAC1031360236813F0C2
:1014A000080F40D0636963B35B4B01221A60FFF7FA
:1014B000DFFE0546564B5B6F13F0020F33D1FFF78B
:1014C000D7FE401B0228F5D9032033E1504A1368A8
:1014D00023F0F803216943EAC1031360DEE74D4BB3
:1014E00000221A60FFF7C4FE0546494B1B6813F043
:1014F000020FD3D0FFF7BCFE401B0228F5D9032012
:1015000018E1454B00221A60FFF7B2FE0546404B3A
:101510005B6F13F0020F06D0FFF7AAFE401B0228F4
:10152000F5D9032006E1236813F0040F79D0384B76
:101530001B6C13F0805F33D100230193344B1A6C82
:1015400042F080521A641B6C03F080530193019B9C
:101550000125324B1B6813F4807F23D0A368012B35
:1015600034D0052B38D02A4B1A6F22F001021A67AB
:101570001A6F22F004021A67A368002B36D0FFF717
:1015800077FE0646224B1B6F13F0020F48D1FFF780
:101590006FFE801B41F288339842F3D90320C9E0E3
:1015A0000025D6E71D4A136843F480731360FFF7E4
:1015B0005FFE0646194B1B6813F4807FCED1FFF700
:1015C00057FE801B0228F5D90320B3E0104A136FA1
:1015D00043F001031367CFE70D4B1A6F42F004028B
:1015E0001A671A6F42F001021A67C5E7FFF740FE5B
:1015F0000646074B1B6F13F0020F11D0FFF738FEA2
:10160000801B41F288339842F3D9032092E000BF57
:101610000038024000004742800E47420070004000
:10162000EDB9A369002B00F08480454A926802F06E
:101630000C02082A51D0022B17D0424B00221A600C
:10164000FFF716FE04463E4B1B6813F0007F42D0A6
:10165000FFF70EFE001B0228F5D903206AE0384A86
:10166000136C23F080531364DBE7364B00221A60BF
:10167000FFF7FEFD0546324B1B6813F0007F06D0D6
:10168000FFF7F6FD401B0228F5D9032052E0E3697D
:10169000226A1343626A43EA8213A26A5208013A39
:1016A00043EA0243E26A43EA0263254A5360254B58
:1016B00001221A60FFF7DCFD0446214B1B6813F082
:1016C000007F06D1FFF7D4FD001B0228F5D90320C7
:1016D00030E000202EE000202CE0012B2CD0184B15
:1016E0005B6803F48001E269914201D0012021E0AE
:1016F00003F03F02216A8A4201D001201AE0616AA8
:1017000047F6C0721A408A4201D0012012E003F469
:101710004032A16A8A4201D001200BE003F07063DD
:10172000E26A93420AD0012004E0012070470120C0
:1017300000E0002002B070BD0120FBE70020F9E7C7
:101740000038024060004742324B9B6803F00C03B4
:10175000042B5CD0082B01D02F4870472DE9F04BAB
:101760002C4B5A6802F03F025B6813F4800F2BD0B9
:10177000284B5B68C3F388131E4600275C010025D5
:10178000E41A65EB0705A90141EA9461A001001B79
:1017900061EB0501CB0043EA5073C400A01943EB91
:1017A00007014B0243EAD053440220461946002366
:1017B000FFF7E4F8174B5B68C3F3014301335B00A9
:1017C000B0FBF3F0BDE8F08B124B5B68C3F38813FA
:1017D0001E4600275C010025E41A65EB0705A901F8
:1017E00041EA9461A001001B61EB0501CB0043EAD3
:1017F0005073C400A01943EB07018B0243EA9053D6
:101800008402204619460023FFF7B8F8D2E70348C0
:10181000704700BF003802400024F40000127A0034
:10182000002800F09E8070B50446504B1B6803F002
:101830000F038B4209D2CBB24C4A1370136803F0EA
:101840000F038B4201D0012070BD236813F0020FFB
:1018500017D013F0040F04D0454A936843F4E053C3
:101860009360236813F0080F04D0414A936843F44F
:10187000604393603E4A936823F0F003A0680343FB
:1018800093600D46236813F0010F32D06368012B7B
:1018900021D09A1E012A25D9354A126812F0020F6A
:1018A00061D033498A6822F0030213438B60FFF74B
:1018B000DFFC06462E4B9B6803F00C036268B3EB1B
:1018C000820F16D0FFF7D4FC801B41F28833984278
:1018D000F0D90320B8E7264A126812F4003FE0D19D
:1018E0000120B1E7224A126812F0007FD9D101200D
:1018F000AAE71E4B1B6803F00F03AB4209D9EAB2FB
:101900001A4B1A701B6803F00F03AB4201D0012081
:101910009AE7236813F0040F06D0154A936823F45E
:10192000E053E1680B439360236813F0080F07D07E
:101930000F4A936823F46043216943EAC10393602B
:10194000FFF702FF0A4B9B68C3F30313094AD35CFA
:10195000D840094B1860094B1868FFF73FFC00207E
:1019600072E70120704701206EE700BF003C024093
:1019700000380240A04000080000002008000020BD
:10198000DFF834D0002103E00C4B5B5843500431A6
:101990000B480C4B42189A42F6D30B4A02E0002344
:1019A00042F8043B094B9A42F9D3FFF709FC00F0D7
:1019B00017F8FFF7FDFA704700800120A8430008E0
:1019C00000000020DC010020E00100202C020020AB
:1019D000FEE70000014B1868704700BF0C000020B4
:1019E00070B50D4E0D4CA41BA4100025A54209D1C5
:1019F0000B4E0C4C02F046FBA41BA4100025A54284
:101A000005D170BD56F8253098470135EEE756F8F8
:101A1000253098470135F2E7A0430008A0430008AD
:101A2000A0430008A443000802440346934200D1A7
:101A3000704703F8011BF9E72DE9FF4755EC104B00
:101A40000D9FDDF830A0002D0E4691461946B8BF17
:101A500022462B4627F02007BBBF05F100431D4659
:101A600000232D23B8BF1446462F0B7004D0452FFA
:101A700000D10136022100E0032103AB019302AB48
:101A800000933246534645EC104B00F0D5FC472FEF
:101A9000804602D119F0010F26D0462F08EB060927
:101AA00011D198F80030302B0AD1002200232046B3
:101AB0002946FFF793F918B9C6F10106CAF8006084
:101AC000DAF8003099440022002320462946FFF727
:101AD00085F938B93022039B4B4505D2591C039137
:101AE0001A70F8E7CDF80C90039B0E9AA3EB08034D
:101AF0004046136004B0BDE8F087F7B500290446FE
:101B0000BABF49422D232B23092904F8022B437025
:101B100020DD0DF107031F460A2691FBF6F506FBB3
:101B200015113031092D03F8011C03F1FF3229464C
:101B300009DC3031023B02F8011CBB42224604D3CF
:101B4000101A03B0F0BD1346E7E713F8012B04F8B1
:101B5000012BF2E7302319448370021DC170EFE7B7
:101B60002DE9F04F8DB00C46DDF8588016461F4623
:101B7000054601F0E3FA036804931846FFF77EF880
:101B800000230A93D8F800300590073323F00703A9
:101B900003F1080294F818A0D4F800B0C8F80020A7
:101BA000D3E90023C4E91223D4E9128929F00043C0
:101BB0000793CDF818804FF0FF32A74BDDE90601FF
:101BC000FFF73EF970BB4FF0FF32A34BDDE9060192
:101BD000FFF718F930BB0022002340464946FFF7C3
:101BE00007F910B12D2384F843309C4A9C4BBAF17D
:101BF000470F8CBF9046984603232BF004022361C5
:101C000022604FF00009009733460BAA2146284670
:101C100000F0E6F9013040F08D804FF0FF300DB05C
:101C2000BDE8F08F42464B4640464946FFF708F96B
:101C300010B18C4A8C4BDAE761684B1C4BF4806224
:101C40000AA83ED1062363600023CDE9020309AB55
:101C5000009349EC108B0DF123032260CDF804A012
:101C600061682846FFF7E8FE0AF0DF03472B80464D
:101C700009D1099BD81C02DB6268934247DDAAF1B7
:101C8000020A5FFA8AFABAF1650F099924D8013974
:101C9000524604F150000991FFF72FFF0A9A1318DA
:101CA000012A8146236102DC2268D10701D5013374
:101CB00023619DF82330002BA5D02D2384F84330D9
:101CC000A1E7BAF1670F00F07781BAF1470FBBD1F6
:101CD0000029B9D10123B6E7BAF1660F19D100295D
:101CE00063680CDD216113B92268D20702D5013384
:101CF0000B442361099BA3654FF00009D9E713B991
:101D00002268D00701D50233F3E70123F1E74FF052
:101D1000670ADDE90932934205DB22682361D107B6
:101D2000E8D50133E5E7002BD4BFC3F1020301235B
:101D30001344DEE723685A0507D423694246314637
:101D40002846B84701302BD167E7BAF1650F40F25A
:101D5000DC8000220023D4E91201FFF73FF80028BD
:101D600033D00123414A31462846B84701303FF479
:101D700054AFDDE909239A4202DB2368D8070FD567
:101D8000DDE9042331462846B84701303FF445AF2A
:101D90004FF0000804F11A090A9B013B434509DC96
:101DA00023689B0700F10381E0680B9B9842B8BF52
:101DB000184634E701234A4631462846B8470130E1
:101DC0003FF42BAF08F10108E6E7099B002B2BDC61
:101DD0000123264A31462846B84701303FF41DAF5B
:101DE000099B23B90A9B13B92368D907D8D5DDE924
:101DF000042331462846B84701303FF40EAF4FF078
:101E0000000904F11A0A099B5B424B4501DC0A9B5D
:101E100094E70123524631462846B84701303FF443
:101E2000FCAE09F10109EEE70A9AA36D9A42A8BF38
:101E30001A46002A914607DD134631464246284697
:101E4000B84701303FF4E9AE04F11A034FF0000B3C
:101E500029EAE979069315E0FFFFEF7FDC400008EF
:101E6000D8400008E4400008E0400008E8400008CE
:101E70000123069A31462846B84701303FF4CDAEDB
:101E80000BF1010BD4F858A0AAEB09035B45EFDC7A
:101E9000DDE909239A42D04415DB2368DA0712D41E
:101EA0000A9B0999A3EB0A02A3EB010A9245A8BF7A
:101EB0009246BAF1000F0EDC4FF000082AEAEA7AE7
:101EC00004F11A0919E0DDE9042331462846B84730
:101ED0000130E5D1A1E65346424631462846B8478F
:101EE0000130E9D199E601234A4631462846B847F0
:101EF00001303FF492AE08F10108DDE909239B1A95
:101F0000A3EB0A034345EEDC4AE70A9A012A01DC07
:101F1000DB073AD50123424631462846B84701300F
:101F20003FF47BAEDDE9042331462846B847013053
:101F300008F101083FF471AE0A9B002203F1FF3A59
:101F4000D4E912010023FEF749FFC8B953464246BF
:101F500031462846B84701300ED15EE6012352468D
:101F600031462846B84701303FF457AE08F1010822
:101F70000A9B013B4345F1DC4B4604F15002DEE68F
:101F80004FF0000804F11A0AF2E70123DFE701230A
:101F90004A4631462846B84701303FF43EAE08F184
:101FA0000108E3680B9A9B1A4345F0DCFCE64FF00E
:101FB000000804F11909F4E700293FF48BAE00236F
:101FC000CDE9020309AB009349EC108B2260CDF8F8
:101FD00004A00DF123032846FFF72EFD804648E6B6
:101FE0002DE9F04791461F468A680B69DDF820808D
:101FF0009342B8BF1346C9F8003091F84320064613
:102000000C4612B10133C9F800302368990642BF6B
:10201000D9F800300233C9F80030256815F00605FC
:1020200007D104F1190AE368D9F800209B1AAB42E2
:1020300028DC94F843302268003318BF012392064D
:102040002DD404F1430239463046C047013020D038
:102050002368E568D9F8002003F00603042B08BFC5
:10206000AD1AA36822690CBF25EAE57500259342E5
:10207000C4BF9B1AED184FF000091A344D451AD110
:10208000002008E00123524639463046C04701305F
:1020900003D14FF0FF30BDE8F0870135C3E7E11809
:1020A0005A1C302081F84300224494F8451082F8ED
:1020B00043100233C5E70123224639463046C04764
:1020C0000130E6D009F10109D8E700002DE9F0431D
:1020D00001F1430C0C46097E85B06E291746064671
:1020E00098460C9A00F0B38022D8632936D00AD8DB
:1020F000002900F0B980582900F0838004F14205DE
:1021000084F8421032E0642901D06929F6D12068B0
:102110001368050603F104012AD51B681160002B22
:1021200003DA2D225B4284F843206F480A2239E00B
:10213000732900F09D8008D86F2920D07029DDD147
:10214000236843F02003236003E0752917D0782922
:10215000D4D1782384F84530644855E01368191DBC
:102160001B68116004F1420584F8423001238CE0C1
:102170001B68116010F0400F18BF1BB2CFE7136847
:102180002568181D1060280601D51B6802E0680646
:10219000FBD51B8854486F2914BF0A22082200214E
:1021A00084F843106568A560002DC0F29580216811
:1021B00021F004012160002B3DD1002D40F08E80E4
:1021C0006546082A0BD12368DB0708D523696268B6
:1021D0009A42DEBF302305F8013C05F1FF35ACEB38
:1021E00005032361CDF800803B4603AA2146304613
:1021F000FFF7F6FE01304DD14FF0FF3005B0BDE8DE
:10220000F083394884F84510136821681D1D1B6848
:1022100015600A060BD5CA0744BF41F020012160B2
:102220001BB9226822F0200222601022B7E74D0677
:1022300048BF9BB2EFE76546B3FBF2F102FB1133F7
:10224000C35C05F8013D0B460029F5D1B9E71368D9
:1022500025686169181D106028061B6801D5196082
:1022600002E06A06FBD51980002323616546B9E7C1
:102270001368191D11601D68626800212846FEF769
:1022800007FD08B1401B606063682361002384F888
:102290004330A7E723692A4639463046C047013014
:1022A000AAD023689B0713D4E068039B9842B8BF69
:1022B0001846A3E701234A4639463046C047013055
:1022C0009AD00135E368039A9B1AAB42F2DCEBE744
:1022D000002504F11909F5E7002BACD1037884F847
:1022E000423004F142056CE7EA400008FB40000878
:1022F0000FB40A4B13B51C6824B1A36913B9204667
:1023000000F092FE05AB049AA1680193204601F00B
:10231000F1FA02B0BDE8104004B070470C00002094
:102320002DE9F74F03690C69A3428046C0F2828011
:10233000013C01F114074FEA840C00F1140657F830
:10234000245056F8240006EB0C03013507EB0C096A
:102350000193B0FBF5F595B34FF0000A3846B64649
:10236000D34650F8042B93B205FB03A34FEA134A5C
:102370009BB2ABEB0303120CDEF800B005FB02A22C
:1023800013FA8BF34FEA124A1FFA82FBDEF80020A1
:10239000CBEB124202EB23429BB243EA024381455C
:1023A0004FEA224B4EF8043BDBD256F80C3033B9DF
:1023B000019B043B9E421A4630D3C8F81040404669
:1023C00001F0F2F8002825DB013530464FF0000C13
:1023D00057F8042BD0F800E093B2ACEB0303120CD7
:1023E00013FA8EF3C2EB1E4202EB23429BB243EA86
:1023F0000243B9454FEA224C40F8043BE8D256F874
:10240000242006EB84032AB9043B9E421A460BD3D0
:10241000C8F81040284603B0BDE8F08F1268043BAE
:10242000002ACAD1013CC5E71268043B002AEFD15B
:10243000013CEAE70020EEE72DE9F04F57EC106B86
:1024400097B0456A069104460B921293DDF880809E
:10245000CDE900673DB9102000F07EFE6062C0E962
:1024600001550560C560636A196851B15A684A60D0
:10247000012393408B60204600F0B5FE636A002282
:102480001A603B1EBBBF23F00043019300230122CF
:10249000ACBFC8F80030C8F80020AF4BDDF80480AE
:1024A00033EA080314D1129A42F20F731360009BAF
:1024B00023B9C8F31300002800F04285219BDFF800
:1024C000ACB2002B00F044850BF1030300F03EBDDD
:1024D000DDE900670022002330463946FEF77EFC26
:1024E000814668B1129A01231360219B002B00F0F2
:1024F00024859A4B219A03F1FF3B136000F028BD1D
:1025000014AA15A947EC106B204601F0C4F8C8F3D3
:102510000A550490002D7CD0C7F3130343F07F5B72
:10252000B2464BF4401BA5F2FF35CDF84C9000228B
:102530008B4B50465946FDF757FE81A3D3E9002344
:10254000FEF70AF880A3D3E90023FDF74FFE064605
:1025500028460F46FDF796FF7DA3D3E90023FDF73C
:10256000FBFF02460B4630463946FDF73FFE064666
:102570000F46FEF77BFC0022824600233046394698
:10258000FEF736FC48B15046FDF77CFF32463B462D
:10259000FEF724FC08B90AF1FF3ABAF1160F59D830
:1025A000704901EBCA01DDE90023D1E90001FEF722
:1025B0003DFC002850D00AF1FF3A00230F93149BF2
:1025C0005D1BB5F1010849BFC5F101030023059367
:1025D0004FF0000858BF0593BAF1000F3EDB00230F
:1025E000D044CDF838A00793069B092B00F29080C9
:1025F000052BC4BF043B0693069BA3F10203CCBF8B
:1026000000250125032B00F28F80DFE803F07D7F9A
:102610003171DDE914531D4405F23240202813DDE9
:10262000C0F14000009B08FA00F805F2124023FABE
:1026300000F048EA0000FDF715FF01238246A1F1F2
:10264000F87B013D139372E7009BC0F1200003FA71
:1026500000F0F0E70123B1E70F90B0E7059BA3EB93
:102660000A030593CAF10003079300230E93BBE707
:1026700001230A930B9B002B59DD02939946666A4E
:1026800000227260042202F114009842716853D94A
:10269000204600F074FD636A3060B9F10E0FD3F884
:1026A00000B000F2E680002D00F0E3809DED007B9D
:1026B000BAF1000F8DED107B74DD2A4A0AF00F038A
:1026C00002EBC30393ED007B4FEA2A16F0068DED73
:1026D000087B65D5244BDDE91001D3E90823FEF71B
:1026E00065F8CDE9000106F00F0603251E4F4CE00A
:1026F00001230A930B9B534403F1010902934B46B8
:10270000012BB8BF0123BAE70023B2E70023F0E7AB
:102710000125002306930A954FF0FF330293994653
:10272000002212230B92AAE701230A93F4E7012364
:10273000029399461A46F5E7013171605200A2E70B
:1027400061436F63A787D23FB3C8608B288AC63FB7
:10275000FB799F501344D33F0000F07FE94000080D
:102760000000F83FA841000880410008154100081A
:10277000F10708D5DDE90801D7E90023FDF7ECFEF4
:10278000CDE90801013576100837002EF0D1DDE9DA
:102790000823DDE90001FEF709F8CDE900011AE0A0
:1027A0000225A3E700F0A080CAF100069F4BA04FCE
:1027B00006F00F0203EBC203D3E90023DDE91001A9
:1027C000FDF7CAFECDE90001361100230225002ED7
:1027D0007FD1002BE1D10F9B002B00F08780DDE93A
:1027E00000670022934B30463946FEF701FB002874
:1027F0007CD0B9F1000F79D0029B002B35DD0AF1B6
:10280000FF330893394600228B4B3046FDF7A4FE78
:10281000CDE90001029F01352846FDF733FEDDE9D1
:102820000023FDF799FE0022844BFDF7DFFC0546EF
:10283000A1F15076002F5DD10022814BDDE900012E
:10284000FDF7D2FC2A463346CDE90001FEF7EEFA49
:10285000002840F088822A4606F10043DDE90001A5
:10286000FEF7C6FA002840F07C82DDE91023CDE9AE
:102870000023159B002BC0F25081BAF10E0F00F31C
:102880004C816A4B03EBCA0393ED007B0B9B002B3F
:102890008DED027B80F2D880B9F1000F00F3D48077
:1028A00040F05E820022664B51EC170BFDF754FEA0
:1028B000DDE90023FEF7B0FA4F464E46002840F00F
:1028C000348231230BF101058BF800300AF1010A43
:1028D0002FE2F20705D5D7E90023FDF73DFE0135CC
:1028E00001237610083772E7022574E7CDF820A09F
:1028F0004F4691E74D4B03EBC70353E902010A9B97
:10290000002B47D002460B4600204E49FDF74EFFF4
:102910002A463346FDF768FCCDE90C015D46DDE94A
:102920000001FEF7A3FA0646FDF7ACFD02460B4692
:10293000DDE90001FDF758FC303605F8016BDDE9F3
:102940000C23CDE90001FEF753FA002863D1DDE93D
:10295000002300203749FDF747FCDDE90C23FEF793
:1029600047FA002840F0B780A5EB0B039F427FF7A2
:102970007CAF0022304BDDE90C01FDF7EDFD0022BC
:10298000CDE90C012C4BDDE90001FDF7E5FDCDE9BA
:102990000001C4E72A463346FDF7DEFDCDE90C0110
:1029A0000BEB07055E46DDE90001FEF75FFA07461F
:1029B000FDF768FD303702460B46DDE90001FDF703
:1029C00013FC06F8017BAE42CDE900014FF0000296
:1029D00026D11C4BDDE90C01FDF708FC02460B4635
:1029E000DDE90001FEF722FA002874D1DDE90C23AD
:1029F00000201449FDF7F8FB02460B46DDE9000113
:102A0000FEF7F6F900283FF430AF15F8013C302B03
:102A100005F1FF3202D0DDF820A04AE01546F4E7C8
:102A2000054BFDF799FDCDE90001BCE7A841000881
:102A3000804100080000F03F0000244000001C40DE
:102A4000000014400000E03FDDE900675D46DDE97D
:102A5000022330463946FDF7A9FEFEF707FA804605
:102A6000FDF710FDDDE90223FDF776FD02460B467A
:102A70003046394608F13006FDF7B6FB05F8016B24
:102A8000A5EB0B06B14502460B4639D1FDF7AEFB6F
:102A9000DDE9022306460F46FEF7C8F9C8B9DDE9AD
:102AA000022330463946FEF799F910B118F0010FAC
:102AB0000FD10499204600F096FB0023129A2B7048
:102AC0000AF101031360219B002B00F041821D607D
:102AD0003EE2CDF820A015F8012C392A05F1FF338C
:102AE00008D19B450AD1089B0133089330238BF80A
:102AF00000305B461A7801321A708CE71D46EAE70F
:102B000000229B4BFDF728FD0022002306460F46BE
:102B1000FEF764F900289AD0CBE70A9A002A00F061
:102B20008B80069A012A6EDC139A002A67D003F282
:102B30003343079F059D059A01211A4420460592BB
:102B4000984400F0F0FB0646002D0CDDB8F1000FB4
:102B500009DD4545059A2B46A8BF4346D21A059282
:102B6000ED1AA8EB0308079BEBB10A9B002B67D07B
:102B70008FB131463A46204600F074FC049A014673
:102B80000646204600F0D8FB04990890204600F045
:102B90002AFB089B0493079BDA1B04D00499204668
:102BA00000F060FC04900121204600F0BCFB0E9B6D
:102BB0000746002B00F0D0811A460146204600F05F
:102BC00051FC069B012B074640DC009B002B39D1B2
:102BD000019BC3F31303002B36D1019B23F0004369
:102BE0001B0D1B052BB1059B0133059308F1010853
:102BF000012307930E9B002B2AD1012030E0149B68
:102C0000C3F1360395E7079B09F1FF37BB42BFBF0E
:102C1000079B0797FA1A0E9BBBBF9B180E93DF1BEF
:102C20000027B9F1000FB5BF059B059DA3EB090572
:102C30004B46B8BF00237EE7079F059D0A9E83E7AA
:102C4000079AABE70023D4E7009BD2E70023079362
:102C50003B6907EB8303186900F017FBC0F1200004
:102C6000404410F01F0047D0C0F12003042B3BDD8F
:102C7000059BC0F11C000344059305448044059B5B
:102C8000002B05DD1A460499204600F039FC04901B
:102C9000B8F1000F05DD39464246204600F030FC11
:102CA00007460F9B53B33946049800F07DFC00287B
:102CB00024DA00230A220499204600F0ABFA0A9B8A
:102CC00004900AF1FF3A002B00F04D8100233146B9
:102CD0000A22204600F09EFA029B002B06464FDC9B
:102CE000069B022B4CDD11E0C9D0059A1C331A4417
:102CF00005921D449844C2E70346F6E7B9F1000F78
:102D000038DC069B022B35DDCDF80890029B63B9B9
:102D100039460522204600F07DFA01460746049810
:102D200000F042FC00283FF7CCAD0B9B5D466FEAFC
:102D3000030A4FF000093946204600F054FA002EED
:102D40003FF4B7AEB9F1000F05D0B14503D0494605
:102D5000204600F048FA3146204600F044FAA8E642
:102D600000273E46E1E7DDF820A03E46A9E500BF8A
:102D7000000024400A9BCDF80890002B00F0FA8058
:102D8000002D05DD31462A46204600F0B9FB0646F7
:102D9000079B002B4CD07168204600F0F0F9326997
:102DA00002320546920006F10C010C3000F0DCF90D
:102DB00001222946204600F0A3FB009BCDF814B069
:102DC00003F00103B1460793064639460498FFF71E
:102DD000A7FA4946054600F13008049800F0E4FBE4
:102DE000324600903946204600F0F8FBC3680246A0
:102DF00003BB01460890049800F0D6FB089A0346EE
:102E000011462046089300F0EEF9089BA3B9069AF4
:102E100092B9079A82B9B8F1390F29D0009B002BDB
:102E200001DD05F13108059B5D1C83F8008082E718
:102E30003046C2E70123E3E7009A002A04DB25D1EC
:102E4000069A1ABB079A0ABB002BECDD01220499F3
:102E5000204600F055FB3946049000F0A5FB002801
:102E600003DCE0D118F0010FDDD0B8F1390FD8D173
:102E7000059B059A5D1C3923137015F8013C392B0D
:102E800005F1FF324FD00133137054E7059A002B40
:102E900002F1010506DDB8F1390FE9D008F10108AA
:102EA000059BC2E7029A05F8018CA5EB0B03934240
:102EB00021D000230A220499204600F0ABF9B14545
:102EC00004904FF000034FF00A024946204605D116
:102ED00000F0A0F981460646059576E700F09AF9DC
:102EE0003146814600230A22204600F093F9064627
:102EF000F2E74FF0000901220499204600F000FBA0
:102F00003946049000F050FB0028B6DC02D118F0DE
:102F1000010FB2D115F8013C302B05F1FF327FF4DF
:102F20000AAF1546F6E7934505D131230AF1010AA8
:102F30008BF80030FFE615469FE7DFF864B007E046
:102F4000219BDFF860B01BB10BF10803219A1360DD
:102F5000584617B0BDE8F08F069B012B7FF735AEC2
:102F60000E9B079349E6029B002B03DC069B022B7A
:102F70003FF7CCAE5D4639460498FFF7D1F900F132
:102F8000300805F8018B029AA5EB0B039A42B0DDDD
:102F900000230A220499204600F03CF90490EAE755
:102FA000E84000080C410008002310B50446C0E9C1
:102FB0000033836081814366C281C0E90433836149
:102FC000194608225C30FEF72FFD054B6362054B66
:102FD000A362054BE362054B2462236310BD00BF6F
:102FE000413B0008633B00089B3B0008BF3B0008D7
:102FF000014900F085B800BF993E000870B54A1E2F
:10300000682555430E4605F1740100F0EFFB0446B8
:1030100040B10021C0E900160C30A06005F1680243
:10302000FEF702FD204670BD836910B5044633BB30
:10303000C0E912330365124B124A1B688262984240
:1030400004BF0123836100F01FF86060204600F098
:103050001BF8A060204600F017F80022E060042171
:103060006068FFF7A1FF01220921A068FFF79CFF1C
:1030700002221221E068FFF797FF0123A36110BD30
:10308000D4400008F12F0008F8B51B4B1E68B36947
:10309000074613B93046FFF7C7FF4836D6E9013473
:1030A000013B03D5336833B13668F7E7B4F90C5008
:1030B0006DB16834F4E704213846FFF79FFF3060B4
:1030C0000028F1D10C233B6004462046F8BD0B4B91
:1030D0006566C4E90055A560C4E90335C4E9055532
:1030E0000822294604F15C00FEF79EFCC4E90D5558
:1030F000C4E91255E9E700BFD44000080100FFFF12
:103100002DE9F8438046894600F14804002614B9A9
:103110003046BDE8F883D4E90175013F01D5246844
:10312000F5E7AB89012B07D9B5F90E30013303D090
:1031300029464046C84706436835EEE7044B1B68FE
:10314000186A044B002808BF1846F030704700BFCB
:103150000C00002070000020024B0146186800F0AF
:1031600045BB00BF0C00002010B5431E0A4491422D
:1031700000D110BD11F8014B03F8014FF7E770B50E
:10318000456A04460E463DB91020FFF7E5FF606230
:10319000C0E901550560C560656AEB6883B1636A83
:1031A000DB6853F82600B8B9012101FA06F56A1D5B
:1031B0009200204600F0BEFA60B1C0E901650EE061
:1031C00021220421204600F0B5FA636AE860DB683A
:1031D000002BE4D1002070BD026843F826200023B4
:1031E000C0E90333F7E770B5446A06460D463CB9BB
:1031F0001020FFF7B1FF7062C0E901440460C460B1
:103200003DB1736A6A68DB6853F82210296043F89D
:10321000225070BD2DE9F0410D691F4606460C464F
:1032200001F1140C0023DCF8000081B202FB0171F3
:103230000F0C000C02FB007089B2013301EB00415E
:103240009D424FEA10474CF8041BECDCD7B1A36851
:10325000AB4212DC616830460131FFF790FF226912
:10326000023204F10C01804692000C30FFF77CFF23
:1032700021463046FFF7B7FF444604EB850301358E
:103280005F6125612046BDE8F081020C120403460F
:10329000B2B90304102013F07F4F04BF1B020830A3
:1032A00013F0704F04BF1B01043013F0404F04BFF4
:1032B0009B000230002B06DB5B0003D5013070471A
:1032C0000020E8E720207047036813F0070201465A
:1032D0000BD0DA0723D4980749BF5B089B0801206D
:1032E0000B605CBF0B600220704798B2A8B91B0C42
:1032F000102013F0FF0F04BF1B0A08301A0704BF89
:103300001B0904309A0704BF9B080230DA0702D475
:103310005B0806D001300B6070471046E9E70020DB
:1033200070472020704710B50C460121FFF727FF9A
:1033300001224461026110BD2DE9F74F14460A696C
:1033400023699A42B8BF0B468846BCBFA0461C46BC
:10335000D8F81070D4F81090D8F80830D8F80410C5
:1033600007EB0906B342B8BF0131FFF708FF00F1D0
:10337000140505EB860E2B460022734516D304F187
:10338000140208F1140102EB890301EB8707009393
:10339000009B019293420CD8002E03DD5EF8043DA1
:1033A000002B5DD0066103B0BDE8F08F43F8042B1D
:1033B000E3E7B2F800B0BBF1000F23D08946AC467A
:1033C0004FF0000859F8044BDCF800A0A3B21FFA34
:1033D0008AFA0BFB03A34FEA144ADCF8004043448B
:1033E0004FEA14480BFB0A8404EB1344E2469BB2F9
:1033F00043EA04434F454FEA14484AF8043B2BD8AC
:10340000CCF80480019BB3F802A00432BAF1000F9B
:1034100020D02B688946A8464FF0000BB9F800C0B1
:10342000B8F802400AFB0C445C44C4469BB243EA31
:1034300004434CF8043B59F8043BB8F804B01B0CA7
:103440000AFB03B303EB14434F454FEA134B05D874
:10345000C8F8043004359BE7D446B3E7E046DDE71F
:10346000013E99E72DE9F843154612F0030206469E
:103470000F4607D0013A214C002354F82220FFF7D1
:10348000C9FE0746AD1035D0746A3CB91020FFF76D
:1034900063FE7062C0E901440460C460D6F8248011
:1034A000D8F808404CB940F271213046FFF73BFF95
:1034B0000023C8F80800044603604FF00008EB073B
:1034C0000AD5394622463046FFF736FF394681464F
:1034D0003046FFF788FE4F466D100BD0206838B994
:1034E000224621463046FFF727FF2060C0F80080C3
:1034F0000446E4E73846BDE8F88300BF70420008A0
:103500002DE9F0470C464FEA621A236949680AEB35
:103510000309A3680746164609F10105AB4232DBF1
:103520003846FFF72CFE0023804600F114011A46AE
:1035300053452BDB20692AEAEA7A04F1140316F0DA
:103540001F0201EB8A0103EB800C25D0C2F1200E93
:1035500000201E688A46964030434AF8040B53F810
:10356000040B9C4520FA0EF014D8486008B109F10C
:103570000205013D3846C8F810502146FFF733FEDA
:103580004046BDE8F08701315B00C7E741F82320E2
:103590000133CDE75146DCE7043953F8042B41F8F9
:1035A000042F9C45F9D8E4E703690A699B1A30B5F2
:1035B0000CD19200143014318418114454F8045D75
:1035C00051F8042D954203D005D30123184630BD90
:1035D000A042F3D3FAE74FF0FF33F7E72DE9F047C6
:1035E0000D460746114628461446FFF7DDFF061E26
:1035F00008D131463846FFF7C2FD0123C0E9043641
:10360000BDE8F087A4BF23462C4638466168A6BFB4
:103610001D4600260126FFF7B2FD2B69C66026690C
:1036200005F1140904F1140202EB860709EB830883
:1036300000F114054FF0000E52F804AB59F8044B9A
:103640001EFA8AF1A3B2C91A230CC3EB1A4303EB87
:10365000214389B24FEA234EC84541EA03439446C9
:1036600045F8043BE8D8BC4504D355F8043D83B184
:103670000661C5E75CF8041B1EFA81F31A1402EB1D
:1036800011429BB243EA02434FEA224E45F8043B03
:10369000E9E7013EE9E72DE9F7430E46012159EC40
:1036A000108B1546FFF76BFDC9F30A540746C9F3A3
:1036B000130334BB0193B8F1000327D002A840F8EC
:1036C000083DFFF701FE0099F0B1019AC0F1200317
:1036D00002FA03F30B43C2407B610192019BBB6181
:1036E000002B14BF022101213961C4B1A4F233447B
:1036F00004443460C0F135002860384603B0BDE8AA
:10370000F08343F48013D5E77961E7E701A8FFF779
:10371000DBFD019B7B61012139612030E5E707EB8F
:103720008103A0F2324030601869FFF7AEFDC0EBB4
:103730004110E1E738B502FB01F4214600F056F8EC
:10374000054618B122460021FEF76EF9284638BD1D
:1037500038B50546002945D051F8043C0C1F002B14
:10376000B8BFE41800F04AFC1F4A1368104633B98A
:10377000636014602846BDE8384000F040BCA342B6
:103780000CD921686218934204BF1A685B686360B1
:1037900004BF521822600460ECE713465A680AB16D
:1037A000A242FAD919685818A0420BD120680144E6
:1037B000581882421960DDD1106852685A6001447D
:1037C0001960D7E702D90C232B60D3E720682118B2
:1037D0008A4204BF11685268626004BF0918216000
:1037E0005C60C7E738BD00BF0402002070B5CD1C87
:1037F00025F0030508350C2D38BF0C25002D064695
:1038000001DBA94203D90C233360002070BD00F016
:10381000F5FB214A1468214691B9204C23681BB955
:10382000304600F07DF920602946304600F078F9F6
:10383000431C24D10C233360304600F0E0FBE4E766
:103840000B685B1B18D40B2B0FD90B60CD50CC1819
:10385000304600F0D4FB04F10B00231D20F00700DC
:10386000C31AD3D05A42E250D0E78C424B6816BFFD
:10387000636013600C46EBE70C464968CCE7C41C58
:1038800024F00304A04205D0211A304600F048F984
:103890000130CFD02560DBE70402002008020020C1
:1038A0009368013B002B10B4936008DA9469A3423B
:1038B00001DB0A2903D15DF8044B00F085B91368D8
:1038C000581C1060197008465DF8044B7047F8B535
:1038D00006460F461446D518AC4201D1002007E039
:1038E0003A4614F8011B3046FFF7DAFF431CF3D1C8
:1038F000F8BD00002DE9F04F0C469DB017461D465F
:10390000064618B183690BB9FFF78EFB7C4B9C42CE
:1039100058D17468A38918075ED52369002B5BD042
:103920000023099320238DF8293030238DF82A3085
:1039300003954FF0010BB846454615F8013B0BB116
:10394000252B54D1B8EB070A0BD053463A462146F3
:103950003046FFF7BCFF013000F0C280099B5344A2
:10396000099398F80030002B00F0BA8000234FF044
:10397000FF32CDE90523049307938DF853301A9352
:10398000A846052218F8011B5E48FDF781F9049B43
:1039900078BBD90644BF20228DF853201A0744BFB4
:1039A0002B228DF853202A782A2A2AD0079AA84653
:1039B00000200A25414611F8013B303B092B69D90B
:1039C00060B324E0504B9C4201D1B468A2E74F4B56
:1039D0009C4208BFF4689DE72146304600F058F944
:1039E00000289DD04FF0FF301DB0BDE8F08FA846F5
:1039F000A2E7444A801A0BFA00F0184304904546A7
:103A0000BEE7039A111D12680391002A01DB079299
:103A100004E0524243F002030792049398F8003006
:103A20002E2B0ED198F801302A2B38D1039B1A1D6A
:103A30001B680392002BB8BF4FF0FF3308F1020858
:103A40000593334D98F8001003222846FDF720F91E
:103A500040B14023401B03FA00F0049B034308F1EC
:103A60000108049398F800102A488DF828100622BF
:103A700008F10107FDF70CF9002837D0264B1BBBD6
:103A8000039B073323F0070308330393099B4B443D
:103A9000099350E705FB0232012088468AE700239C
:103AA00008F10108059319460A25404610F8012B34
:103AB000303A092A03D9002BC3D00591C1E705FB91
:103AC000012101238046F0E703AB00932246134B0C
:103AD00004A93046FEF744F8B0F1FF3F8146D5D146
:103AE000A3895B063FF57EAF09987DE703AB0093A2
:103AF00022460A4B04A93046FEF7E8FAECE700BF7D
:103B00003C4100087C4200085C4100081C41000860
:103B10008242000886420008611B0008CF38000876
:103B200038B5064C0023054608462360FDF71EFB0A
:103B3000431C02D1236803B12B6038BD280200204A
:103B400010B50C46B1F90E1000F05AFA0028ABBFC0
:103B5000636DA3891B1823F48053ACBF6365A381F5
:103B600010BD2DE9F0411F468B89DB0505460C464B
:103B7000164605D502230022B1F90E1000F0B6F961
:103B8000A389B4F90E1023F48053A38132463B4637
:103B90002846BDE8F04100F069B810B50C46B1F90F
:103BA0000E1000F0A3F9431CA38915BF606523F430
:103BB000805343F48053A38118BFA38110BDB1F992
:103BC0000E1000F0D3B80000F8B50E4614460546B6
:103BD00018B183690BB9FFF727FA214B9C422AD110
:103BE0006C68A369A360A3891A072ED5236963B300
:103BF00023692068C01A6369F6B28342374604DC41
:103C00002146284600F048F928BBA368013BA36081
:103C100023685A1C22601E7063690130834204D0FD
:103C2000A389DB0719D50A2E17D12146284600F0B3
:103C300033F990B10FE00B4B9C4201D1AC68D0E757
:103C4000094B9C4208BFEC68CBE72146284600F0B0
:103C50001FF80028CCD04FF0FF373846F8BD00BF22
:103C60003C4100085C4100081C41000838B5074C85
:103C7000054608461146002222601A46FDF768FAFA
:103C8000431C02D1236803B12B6038BD28020020F9
:103C9000324B70B51D6806460C4625B1AB6913B9A9
:103CA0002846FFF7C1F92E4B9C420FD16C68B4F93E
:103CB0000C309AB215072CD4D00611D409223260E8
:103CC00043F04003A3814FF0FF303EE0254B9C4280
:103CD00001D1AC68EBE7244B9C4208BFEC68E6E7F7
:103CE000510712D5616B41B104F14403994202D0EE
:103CF0003046FFF72DFD00236363A38923F02403DF
:103D0000A3810023636023692360A38943F0080330
:103D1000A38123694BB9A38903F42073B3F5007F12
:103D200003D02146304600F017F9A28912F00103B2
:103D30000CD00023A36063695B42A361236953B97C
:103D4000B4F90C3013F08000BAD170BD920758BF9F
:103D50006369A360F2E70020F7E700BF0C000020D2
:103D60003C4100085C4100081C41000838B5064C85
:103D70000023054608462360FDF716FA431C02D1CE
:103D8000236803B12B6038BD280200208A892DE901
:103D9000F041054610070C4658D44B68002B05DC53
:103DA0000B6C002B02DC0020BDE8F081E66A002EDF
:103DB000F9D0002312F480522F68216A2B6032D090
:103DC000606DA3895A0705D56368C01A636B0BB190
:103DD000236CC01A00230246E66A216A2846B047CF
:103DE000431CA38906D129681D2948D8294ACA40FD
:103DF000D60744D500226260D9042269226004D526
:103E0000421C01D12B6803B96065616B2F600029EA
:103E1000C9D004F14403994202D02846FFF798FC28
:103E200000206063C0E701232846B047411CC8D189
:103E30002B68002BC5D01D2B01D0162B01D12F6074
:103E4000B1E7A38943F04003A381ADE70F69002FD9
:103E5000A9D093070E6808BF4B690F6018BF0023F5
:103E6000A6EB07088B60B8F1000F9CDD43463A468D
:103E7000216AA66A2846B047002806DCA38943F0D9
:103E80004003A3814FF0FF308EE70744A8EB000802
:103E9000E9E700BF0100402038B50B6905460C4634
:103EA000DBB118B183690BB9FFF7BEF80C4B9C422C
:103EB00009D16C68B4F90C307BB121462846BDE8C5
:103EC0003840FFF763BF074B9C4201D1AC68F1E774
:103ED000054B9C4208BFEC68ECE7002038BD00BFF2
:103EE0003C4100085C4100081C41000838B5074C03
:103EF000054608461146002222601A46FDF75EF983
:103F0000431C02D1236803B12B6038BD2802002076
:103F100070B50E46B1F90E10002996B014461D4634
:103F200007DA00232B60B3891A0610D44FF480639C
:103F30000EE06A4600F084F80028F2DB019A02F4F1
:103F40007042A2F500535A425A412A60EEE74023DC
:103F50000020236016B070BD8B8973B59D0706469F
:103F60000C4607D504F147032360236101236361F5
:103F700002B070BD01AB6A46FFF7CAFF0099054663
:103F80003046FFF733FC48B9B4F90C309A05EFD44A
:103F900023F0030343F00203A381E3E70D4BB36275
:103FA000A389206043F08003A381009B6361019B90
:103FB00020615BB1B4F90E10304600F053F828B11F
:103FC000A38923F0030343F00103A381A3891D43C5
:103FD000A581CDE7F12F000882B001B901A942B156
:103FE0004BB113780B601278101C18BF012002B07F
:103FF00070471046FBE76FF00100F8E77047704725
:1040000038B5074C054608461146002222601A467C
:10401000FDF790F8431C02D1236803B12B6038BD33
:104020002802002049B1FF2A85BF8A2303600A7055
:104030004FF0FF3098BF01207047084670470000DE
:1040400038B5074C00230546084611462360FDF7A6
:10405000AEF8431C02D1236803B12B6038BD00BF0A
:104060002802002038B5064C002305460846236088
:10407000FDF7A2F8431C02D1236803B12B6038BDC1
:1040800028020020F8B500BFF8BC08BC9E46704767
:0C409000F8B500BFF8BC08BC9E467047A5
:1040A00000000000000000000102030406070809E8
:1040B000000000000102030464617461203D2025BA
:1040C000642009092074656D70203D20252E32661C
:1040D0000D0A000010000020494E4600696E66007F
:1040E0004E414E006E616E00300030313233343557
:1040F0003637383941424344454600303132333453
:10410000353637383961626364656600496E6669C1
:104110006E697479004E614E0000000000000000DE
:10412000000000000000000000000000000000008F
:10413000000000000000000000000000000000007F
:10414000000000000000000000000000000000006F
:10415000000000000000000000000000000000005F
:10416000000000000000000000000000000000004F
:10417000000000000000000000000000000000003F
:104180000080E03779C34143176E05B5B5B8934653
:10419000F5F93FE9034F384D321D30F94877825A1F
:1041A0003CBF737FDD4F1575000000000000F03F3D
:1041B0000000000000002440000000000000594002
:1041C0000000000000408F40000000000088C34055
:1041D00000000000006AF8400000000080842E41CA
:1041E00000000000D01263410000000084D7974116
:1041F0000000000065CDCD41000000205FA002421C
:10420000000000E876483742000000A2941A6D4290
:10421000000040E59C30A2420000901EC4BCD64283
:1042200000003426F56B0C430080E03779C341432E
:1042300000A0D8855734764300C84E676DC1AB43A4
:10424000003D9160E458E143408CB5781DAF1544C2
:1042500050EFE2D6E41A4B4492D54D06CFF080449D
:10426000F64AE1C7022DB544B49DD9794378EA44B2
:1042700005000000190000007D000000232D302BF8
:104280002000686C4C006566674546470043005057
:104290004F534958002E00002020202020202020AD
:1042A00020282828282820202020202020202020E6
:1042B0002020202020202020881010101010101006
:1042C000101010101010101004040404040404044E
:1042D00004041010101010101041414141414101DF
:1042E00001010101010101010101010101010101BE
:1042F00001010110101010101042424242424202CD
:10430000020202020202020202020202020202028D
:104310000202021010101020000000000000000037
:10432000000000000000000000000000000000008D
:10433000000000000000000000000000000000007D
:10434000000000000000000000000000000000006D
:10435000000000000000000000000000000000005D
:10436000000000000000000000000000000000004D
:10437000000000000000000000000000000000003D
:10438000000000000000000000000000000000002D
:08439000000000000000000025
:0843980014C6FF7F01000000C4
:0443A000C50100084B
:0443A400A10100086B
:1043A8000024F400010000001000000010000020AC
:1043B800000000003C4100085C4100081C41000866
:1043C80000000000000000000000000000000000E5
:1043D80000000000000000000000000000000000D5
:1043E80000000000000000000000000000000000C5
:1043F80000000000000000000000000000000000B5
:1044080000000000000000000000000000000000A4
:104418004300000000000000000000000000000051
:104428000000000000000000000000000000000084
:104438004300000000000000000000000000000031
:104448000000000000000000000000000000000064
:104458004300000000000000000000000000000011
:104468000000000000000000000000000000000044
:1044780043000000000000000000000000000000F1
:104488000000000000000000000000000000000024
:1044980043000000000000000000000000000000D1
:1044A8000000000000000000000000000000000004
:1044B80043000000000000000000000000000000B1
:1044C80000000000000000000000000000000000E4
:1044D8004300000000000000000000000000000091
:1044E80000000000000000000000000000000000C4
:1044F80025400008D93F0008000000009742000846
:104508009542000881420008814200088142000863
:104518008142000881420008814200088142000867
:104528008142000881420008FFFFFFFFFFFFFFFFF5
:10453800FFFFFFFFFFFF000001004153434949000F
:104548000000000000000000000000000000000063
:1045580000000000000000000000415343494900EA
:104568000000000000000000000000000000000043
:0C45780000000000000000000000000037
:040000050800198155
:00000001FF
