:020000040800F2
:1000000000800120751300085107000853070008FD
:1000100055070008570700085907000800000000AE
:100020000000000000000000000000005B07000866
:100030005D070008000000005F0700086107000876
:10004000C5130008C5130008C5130008C513000830
:10005000C5130008C5130008C5130008C513000820
:10006000C5130008C5130008C5130008C513000810
:10007000C5130008C5130008C5130008C513000800
:10008000C5130008C5130008C513000800000000D0
:10009000000000000000000000000000C513000880
:1000A000C5130008C5130008C5130008C5130008D0
:1000B000C5130008C5130008C5130008C5130008C0
:1000C000C5130008C5130008C5130008C5130008B0
:1000D000C5130008C5130008C51300080000000080
:1000E000C5130008C5130008C51300080000000070
:1000F000000000000000000000000000C513000820
:1001000000000000C5130008C5130008C51300084F
:1001100000000000000000000000000000000000DF
:10012000C5130008C5130008C5130008C51300084F
:10013000C5130008000000000000000000000000DF
:10014000000000000000000000000000C5130008CF
:10015000C5130008C5130008C5130008C51300081F
:10016000C5130008C51300080000000000000000CF
:10017000000000000000000000000000000000007F
:1001800000000000C513000800000000000000008F
:04019000C51300088B
:1001940010B5054C237833B9044B13B10448AFF3BD
:1001A40000800123237010BD0C000020000000001B
:1001B4002014000808B5034B1BB103490348AFF3EF
:1001C400008008BD0000000010000020201400087A
:1001D40053B94AB9002908BF00281CBF4FF0FF31AA
:1001E4004FF0FF3000F072B9ADF1080C6DE904CEA8
:1001F40000F006F8DDF804E0DDE9022304B07047FE
:100204002DE9F047089E04468846002B4BD18A42CC
:10021400154667D9B2FA82F24AB1C2F1200701FA4F
:1002240002F320FA07F7954047EA030894404FEA9F
:10023400154E230CB8FBFEF71FFA85FC0EFB17883E
:1002440043EA084307FB0CF1994209D9EB1807F17B
:10025400FF3080F01B81994240F21881023F2B4409
:100264005B1AA4B2B3FBFEF00EFB103344EA034462
:1002740000FB0CFCA44509D92C1900F1FF3380F0D4
:100284000781A44540F2048102382C4440EA074027
:10029400A4EB0C0400271EB1D4400023C6E900439C
:1002A4003946BDE8F0878B4209D9002E00F0EB8077
:1002B4000027C6E9000138463946BDE8F087B3FA9D
:1002C40083F7002F47D18B4202D3824200F2FA8097
:1002D400841A61EB030301209846002EE0D0C6E99E
:1002E4000048DDE702B9FFDEB2FA82F2002A40F0EC
:1002F4008F80491B4FEA154E1FFA85F80127B1FB81
:10030400FEFC230C0EFB1C1143EA014308FB0CF119
:10031400994207D9EB180CF1FF3002D2994200F24E
:10032400CD808446591AA3B2B1FBFEF00EFB101423
:1003340043EA044408FB00F8A04507D92C1900F14E
:10034400FF3302D2A04500F2B6801846A4EB08049D
:1003540040EA0C409FE7C7F1200CBB4022FA0CFE98
:100364004EEA030E01FA07F420FA0CF521FA0CF315
:100374004FEA1E482543B3FBF8F92C0C08FB19334C
:100384001FFA8EFA44EA034309FB0AF49C4202FA78
:1003940007F200FA07F10BD91EEB030309F1FF3052
:1003A40080F087809C4240F28480A9F10209734462
:1003B4001B1BADB2B3FBF8F008FB103345EA034452
:1003C40000FB0AFAA24508D91EEB040400F1FF332E
:1003D4006BD2A24569D90238744440EA0940A0FBB3
:1003E4000289A4EB0A044C45C2464B4654D351D06F
:1003F400002E69D0B1EB0A0564EB030404FA0CFC8B
:10040400FD40FC404CEA0505C6E90054002747E7D7
:10041400C2F1200320FA03F7954001FA02F021FA11
:1004240003F34FEA154E3843010CB3FBFEF71FFAF2
:1004340085F80EFB173341EA034107FB08F38B42AF
:1004440004FA02F407D9691807F1FF3C2FD28B4252
:100454002DD9023F2944CB1A81B2B3FBFEF00EFB27
:10046400103341EA034100FB08F38B4207D96918B2
:1004740000F1FF3C17D28B4215D902382944C91A1E
:1004840040EA07473BE73746304609E70746E7E6D1
:100494001846FBE64145ABD2B8EB020A69EB0E0203
:1004A40001381346A4E76046E9E7184695E767462E
:1004B400D1E781467CE702382C4447E7ACF1020CD3
:1004C4002B442FE7384608E73746E9E6704700BF74
:1004D40030B58BB0002405940694079408940994CD
:1004E4000194224B1A6B42F004021A631A6B02F055
:1004F40004020192019A02941A6B42F080021A6378
:100504001A6B02F080020292029A03941A6B42F070
:1005140001021A631A6B02F001020392039A049413
:100524001A6B42F002021A631B6B03F0020304937A
:10053400049B0F4D22462021284600F09FFA4FF4D9
:10054400005305930B4B0693079405A90A4800F042
:10055400C3F920230593012306930794089405A95E
:10056400284600F0B9F90BB030BD00BF0038024096
:1005740000000240000021100008024008B50848AD
:10058400084B03604FF4E133436000238360C3608E
:1005940003610C2242618361C36100F0B9FE08BDAE
:1005A400280000200044004030B595B030220021DE
:1005B40008A800F02BFF00240394049405940694E7
:1005C400079401941B4B1A6C42F080521A641B6C02
:1005D40003F080530193019B0294174A136823F498
:1005E400404343F400431360136803F4404302930D
:1005F400029B0225089501230B9310230C930E955F
:100604000F9410934FF4A8731193042312930723A8
:10061400139308A800F038FA0F2303930495059464
:100624004FF4805306930794294603A800F08EFCE8
:1006340015B030BD003802400070004008B500F02D
:10064400C3F8FFF7B1FFFFF743FFFFF797FF124A25
:10065400136C43F0010313644FF0804301229A6248
:100664000E4ADA6200225A621A6842F001021A60E3
:100674004FF080431B6913F0010FF9D04FF0804213
:10068400136923F00103136102F50032536983F007
:1006940020035361ECE700BF003802407FDE800294
:1006A40000B583B0002100910C4B5A6C42F4804297
:1006B4005A645A6C02F480420092009A01911A6CB6
:1006C40042F080521A641B6C03F080530193019B27
:1006D400072000F0A5F803B05DF804FB00380240E1
:1006E40000B589B0002303930493059306930793FD
:1006F4000268144B9A4202D009B05DF804FB002151
:10070400019103F5FA331A6C42F400321A641A6C3C
:1007140002F400320192019A02911A6B42F0010232
:100724001A631B6B03F001030293029B0C230393D4
:10073400022304930723079303A9034800F0CCF88A
:10074400DAE700BF00440040000002407047FEE7C3
:10075400FEE7FEE7FEE770477047704708B500F014
:100764004DF808BD054BD3F8882042F47002C3F855
:1007740088204FF000629A60704700BF00ED00E0EF
:1007840010B504460E4B18784FF47A73B3FBF0F3AC
:100794000C4A1068B0FBF3F000F088F868B90F2C2D
:1007A40001D901200AE0002221464FF0FF3000F079
:1007B40049F8034B5C60002000E0012010BD00BF3D
:1007C400040000200000002008B50B4B1A6842F416
:1007D40000721A601A6842F480621A601A6842F45D
:1007E40080721A60032000F01BF80020FFF7C8FF96
:1007F400FFF756FF002008BD003C0240034A116881
:10080400034B1B780B441360704700BF6800002043
:1008140004000020014B1868704700BF68000020E6
:10082400074AD36823F4E0631B041B0C000200F4A2
:10083400E060184340F0BF6040F40030D06070477F
:1008440000ED00E030B4174BDB68C3F30223C3F1BF
:100854000704042C28BF04241D1D062D18D9033BAE
:100864004FF0FF3505FA04F421EA0401994005FA32
:1008740003F322EA0303194300280BDB0901C9B27D
:1008840000F1604000F5614080F8001330BC70470F
:100894000023E5E700F00F000901C9B2024B195427
:1008A400F4E700BF00ED00E014ED00E00138B0F122
:1008B400807F0AD2064B5860064AF02182F8231042
:1008C4000020986007221A6070470120704700BF1B
:1008D40010E000E000ED00E000230F2B00F2C580E3
:1008E400F0B583B039E0042200E00022AA403A4384
:1008F40002345E4D45F824205D4A1468F24302EA4E
:1009040004054F6817F4803F01D046EA0405584CAB
:100914002560646802EA04054F6817F4003F01D0BB
:1009240046EA0405524C6560A46802EA04054F686F
:1009340017F4801F01D046EA04054D4CA560E46815
:1009440022404D6815F4001F01D046EA0402484CC9
:10095400E26001330F2B00F2868001229A400C687A
:1009640004EA0206B242F4D14C68651E012D03D993
:10097400112C01D0122C12D185685F000324BC40D5
:1009840025EA0405CC68BC402C438460456825EA0C
:1009940002054C68C4F300129A402A434260C468BA
:1009A4005F000322BA40D24314408D68BD40254302
:1009B400C5604C68022C01D0122C13D1DD08083517
:1009C40050F825E003F007044FEA840C0F2404FADE
:1009D4000CF42EEA040E0C6904FA0CF444EA0E0436
:1009E40040F82540046822404C6804F00304BC40ED
:1009F400224302604A6812F0805FAAD0002201926A
:100A04001C4A546C44F480445464526C02F4804292
:100A14000192019A9C08A51C144A52F8257003F00F
:100A2400030295000F22AA4027EA0207124A9042C5
:100A34003FF45BAF02F5806290420ED002F5806213
:100A440090420CD002F5806290420AD002F5806296
:100A540090423FF448AF072248E7012246E70222CA
:100A640044E7032242E703B0F0BD70470038014079
:100A7400003C0140003802400000024012B9090461
:100A84008161704781617047002800F0E48170B58E
:100A940082B00446036813F0010F3BD0A74B9B6858
:100AA40003F00C03042B2CD0A44B9B6803F00C0321
:100AB400082B21D06368B3F5803F4FD0B3F5A02F46
:100AC40052D09E4B1A6822F480321A601A6822F4BB
:100AD40080221A606368002B50D0FFF79BFE054606
:100AE400964B1B6813F4003F14D1FFF793FE401B91
:100AF4006428F5D90320B3E1904B5B6813F4800FAD
:100B0400D8D08E4B1B6813F4003F03D06368002BCE
:100B140000F0A381236813F0020F55D0874B9B6824
:100B240013F00C0F3ED0854B9B6803F00C03082B8D
:100B340033D0E368002B68D0814B01221A60FFF7A1
:100B440069FE05467D4B1B6813F0020F54D1FFF775
:100B540061FE401B0228F5D9032081E1774A13681E
:100B640043F480331360B5E7744B1A6842F480226F
:100B74001A601A6842F480321A60ABE7FFF74AFE43
:100B840005466E4B1B6813F4003FC3D0FFF742FECB
:100B9400401B6428F5D9032062E1684B5B6813F4B9
:100BA400800FC6D1654B1B6813F0020F04D0E368B5
:100BB400012B01D0012053E1604A136823F0F803AC
:100BC400216943EAC1031360236813F0080F40D07E
:100BD400636963B35B4B01221A60FFF71BFE054692
:100BE400564B5B6F13F0020F33D1FFF713FE401B1C
:100BF4000228F5D9032033E1504A136823F0F8039F
:100C0400216943EAC1031360DEE74D4B00221A60F9
:100C1400FFF700FE0546494B1B6813F0020FD3D0C3
:100C2400FFF7F8FD401B0228F5D9032018E1454BD6
:100C340000221A60FFF7EEFD0546404B5B6F13F090
:100C4400020F06D0FFF7E6FD401B0228F5D903206A
:100C540006E1236813F0040F79D0384B1B6C13F0B2
:100C6400805F33D100230193344B1A6C42F08052DD
:100C74001A641B6C03F080530193019B0125324BD2
:100C84001B6813F4807F23D0A368012B34D0052B79
:100C940038D02A4B1A6F22F001021A671A6F22F019
:100CA40004021A67A368002B36D0FFF7B3FD06468B
:100CB400224B1B6F13F0020F48D1FFF7ABFD801BD3
:100CC40041F288339842F3D90320C9E00025D6E7DE
:100CD4001D4A136843F480731360FFF79BFD0646B7
:100CE400194B1B6813F4807FCED1FFF793FD801B53
:100CF4000228F5D90320B3E0104A136F43F001032F
:100D04001367CFE70D4B1A6F42F004021A671A6F8C
:100D140042F001021A67C5E7FFF77CFD0646074B60
:100D24001B6F13F0020F11D0FFF774FD801B41F20B
:100D340088339842F3D9032092E000BF0038024080
:100D440000004742800E474200700040EDB9A3699D
:100D5400002B00F08480454A926802F00C02082AB5
:100D640051D0022B17D0424B00221A60FFF752FDDC
:100D740004463E4B1B6813F0007F42D0FFF74AFD48
:100D8400001B0228F5D903206AE0384A136C23F0CB
:100D940080531364DBE7364B00221A60FFF73AFDF9
:100DA4000546324B1B6813F0007F06D0FFF732FD77
:100DB400401B0228F5D9032052E0E369226A134359
:100DC400626A43EA8213A26A5208013A43EA02437E
:100DD400E26A43EA0263254A5360254B01221A6002
:100DE400FFF718FD0446214B1B6813F0007F06D162
:100DF400FFF710FD001B0228F5D9032030E0002086
:100E04002EE000202CE0012B2CD0184B5B6803F45F
:100E14008001E269914201D0012021E003F03F0208
:100E2400216A8A4201D001201AE0616A47F6C07241
:100E34001A408A4201D0012012E003F44032A16A30
:100E44008A4201D001200BE003F07063E26A93420E
:100E54000AD0012004E001207047012000E00020B6
:100E640002B070BD0120FBE70020F9E70038024022
:100E740060004742324B9B6803F00C03042B5CD0A8
:100E8400082B01D02F4870472DE9F04B2C4B5A68A2
:100E940002F03F025B6813F4800F2BD0284B5B6891
:100EA400C3F388131E4600275C010025E41A65EB92
:100EB4000705A90141EA9461A001001B61EB05014A
:100EC400CB0043EA5073C400A01943EB07014B0263
:100ED40043EAD0534402204619460023FFF778F929
:100EE400174B5B68C3F3014301335B00B0FBF3F0C2
:100EF400BDE8F08B124B5B68C3F388131E460027D2
:100F04005C010025E41A65EB0705A90141EA946137
:100F1400A001001B61EB0501CB0043EA5073C40040
:100F2400A01943EB07018B0243EA90538402204645
:100F340019460023FFF74CF9D2E70348704700BF76
:100F4400003802400024F40000127A00002800F067
:100F54009E8070B50446504B1B6803F00F038B4210
:100F640009D2CBB24C4A1370136803F00F038B42BF
:100F740001D0012070BD236813F0020F17D013F0C5
:100F8400040F04D0454A936843F4E0539360236804
:100F940013F0080F04D0414A936843F4604393600C
:100FA4003E4A936823F0F003A068034393600D4620
:100FB400236813F0010F32D06368012B21D09A1EED
:100FC400012A25D9354A126812F0020F61D033493B
:100FD4008A6822F0030213438B60FFF71BFC06466A
:100FE4002E4B9B6803F00C036268B3EB820F16D0A0
:100FF400FFF710FC801B41F288339842F0D903209C
:10100400B8E7264A126812F4003FE0D10120B1E7A4
:10101400224A126812F0007FD9D10120AAE71E4BA0
:101024001B6803F00F03AB4209D9EAB21A4B1A70DA
:101034001B6803F00F03AB4201D001209AE7236839
:1010440013F0040F06D0154A936823F4E053E168C3
:101054000B439360236813F0080F07D00F4A93687B
:1010640023F46043216943EAC1039360FFF702FF5D
:101074000A4B9B68C3F30313094AD35CD840094B5A
:101084001860094B1868FFF77BFB002072E701200A
:10109400704701206EE700BF003C02400038024068
:1010A400381400080000002008000020014B1868D4
:1010B400704700BF0000002008B5FFF7F7FF044B9E
:1010C4009B68C3F38223034AD35CD84008BD00BFA6
:1010D400003802404814000808B5FFF7E7FF044B46
:1010E4009B68C3F34233034AD35CD84008BD00BFB6
:1010F40000380240481400082DE9F04B0446026809
:10110400136923F44053C1680B4313618368026974
:10111400134342691343C2691A430168CB6823F439
:10112400164323F00C031343CB600268536923F482
:10113400407381690B435361C369B3F5004F3BD0DE
:101144000368714A934200F0AB8002F580629342D7
:1011540000F0A680FFF7B0FF4FF00009061849EB36
:10116400090716EB000B47EB090C4FEACC0343EAE3
:101174005B734FEACB0293469C4663689A009B0FCD
:1011840010EB0B0049EB0C01FFF722F85F4DA5FBB8
:1011940000325109642202FB110213013233A5FB10
:1011A40003235B0903F0F00202EB011203F00F03C7
:1011B400216813448B60A4E00368534A934239D0F6
:1011C40002F58062934235D0FFF776FF83464FF0F5
:1011D400000C06184CEB0C0716EB000847EB0C0947
:1011E4004FEAC90343EA58734FEAC8029046994646
:1011F40062680021921841EB01031BEB08004CEBE1
:101204000901FEF7E5FF414DA5FB003251096422B7
:1012140002FB1102D3003233A5FB03235B095A00FE
:1012240002F4F87202EB011203F00703216813447D
:101234008B6066E0FFF750FF80464FF00009061808
:1012440049EB090716EB000B47EB090C4FEACC03FB
:1012540043EA5B734FEACB0293469C4662680021E3
:10126400921841EB010318EB0B0049EB0C01FEF75C
:10127400AFFF264DA5FB00325109642202FB110287
:10128400D3003233A5FB03235B095A0002F4F8723E
:1012940002EB011203F00703216813448B6030E072
:1012A400FFF71AFF4FF00009061849EB090716EB80
:1012B400000B47EB090C4FEACC0343EA5B734FEA9C
:1012C400CB0293469C4663689A009B0F10EB0B007D
:1012D40049EB0C01FEF77CFF0C4DA5FB00325109D4
:1012E400642202FB110213013233A5FB03235B09C1
:1012F40003F0F00202EB011203F00F032168134420
:101304008B60BDE8F08B00BF001001401F85EB51DE
:1013140058B310B5044690F839300BB3242384F83D
:1013240039302268D36823F40053D3602046FFF792
:10133400E3FE2268136923F490431361226853691E
:1013440023F02A0353612268D36843F40053D36023
:101354000020E063202384F8393084F83A3010BD4B
:1013640080F83830FFF7BCF9D8E701207047000057
:10137400DFF834D0002103E00C4B5B5843500431B8
:101384000B480C4B42189A42F6D30B4A02E0002356
:1013940042F8043B094B9A42F9D3FFF7E3F900F012
:1013A40011F8FFF74BF97047008001206014000822
:1013B400000000200C0000200C0000206C00002025
:1013C400FEE7000070B50D4E0D4CA41BA4100025C3
:1013D400A54209D10B4E0C4C00F020F8A41BA4101C
:1013E4000025A54205D170BD56F825309847013532
:1013F400EEE756F8253098470135F2E7581400080F
:1014040058140008581400085C14000802440346E9
:10141400934200D1704703F8011BF9E7F8B500BF08
:10142400F8BC08BC9E467047F8B500BFF8BC08BCC1
:041434009E46704719
:10143800000000000000000001020304060708097C
:08144800000000000102030492
:08145000B4EDFF7F0100000074
:04145800B9010008CE
:04145C0095010008EE
:0C1460000024F400010000001000000057
:040000050800137567
:00000001FF
