:020000040800F2
:100000000080012079140008C90C0008CB0C0008FE
:10001000CD0C0008CF0C0008D10C00080000000037
:10002000000000000000000000000000D30C0008E9
:10003000D50C000800000000D70C0008D90C0008FF
:10004000C9140008C9140008C9140008C91400081C
:10005000C9140008C9140008C9140008C91400080C
:10006000C9140008C9140008C9140008C9140008FC
:10007000C9140008C9140008C9140008C9140008EC
:10008000C9140008C9140008C914000800000000C1
:10009000000000000000000000000000C91400087B
:1000A000C9140008C9140008C9140008C9140008BC
:1000B000C9140008C9140008C9140008C9140008AC
:1000C000C9140008C9140008C9140008C91400089C
:1000D000C9140008C9140008C91400080000000071
:1000E000C9140008C9140008C91400080000000061
:1000F000000000000000000000000000C91400081B
:1001000000000000C9140008C9140008C914000840
:1001100000000000000000000000000000000000DF
:10012000C9140008C9140008C9140008C91400083B
:10013000C9140008000000000000000000000000DA
:10014000000000000000000000000000C9140008CA
:10015000C9140008C9140008C9140008C91400080B
:10016000C9140008C91400080000000000000000C5
:10017000000000000000000000000000000000007F
:1001800000000000C914000800000000000000008A
:04019000C914000886
:1001A00010B5054C237833B9044B13B10448AFF3B1
:1001B00000800123237010BD7C000020000000009F
:1001C000A022000808B5034B1BB103490348AFF355
:1001D000008008BD0000000080000020A022000870
:1001E00053B94AB9002908BF00281CBF4FF0FF319E
:1001F0004FF0FF3000F072B9ADF1080C6DE904CE9C
:1002000000F006F8DDF804E0DDE9022304B07047F1
:100210002DE9F047089E04468846002B4BD18A42C0
:10022000154667D9B2FA82F24AB1C2F1200701FA43
:1002300002F320FA07F7954047EA030894404FEA93
:10024000154E230CB8FBFEF71FFA85FC0EFB178832
:1002500043EA084307FB0CF1994209D9EB1807F16F
:10026000FF3080F01B81994240F21881023F2B44FD
:100270005B1AA4B2B3FBFEF00EFB103344EA034456
:1002800000FB0CFCA44509D92C1900F1FF3380F0C8
:100290000781A44540F2048102382C4440EA07401B
:1002A000A4EB0C0400271EB1D4400023C6E9004390
:1002B0003946BDE8F0878B4209D9002E00F0EB806B
:1002C0000027C6E9000138463946BDE8F087B3FA91
:1002D00083F7002F47D18B4202D3824200F2FA808B
:1002E000841A61EB030301209846002EE0D0C6E992
:1002F0000048DDE702B9FFDEB2FA82F2002A40F0E0
:100300008F80491B4FEA154E1FFA85F80127B1FB74
:10031000FEFC230C0EFB1C1143EA014308FB0CF10D
:10032000994207D9EB180CF1FF3002D2994200F242
:10033000CD808446591AA3B2B1FBFEF00EFB101417
:1003400043EA044408FB00F8A04507D92C1900F142
:10035000FF3302D2A04500F2B6801846A4EB080491
:1003600040EA0C409FE7C7F1200CBB4022FA0CFE8C
:100370004EEA030E01FA07F420FA0CF521FA0CF309
:100380004FEA1E482543B3FBF8F92C0C08FB193340
:100390001FFA8EFA44EA034309FB0AF49C4202FA6C
:1003A00007F200FA07F10BD91EEB030309F1FF3046
:1003B00080F087809C4240F28480A9F10209734456
:1003C0001B1BADB2B3FBF8F008FB103345EA034446
:1003D00000FB0AFAA24508D91EEB040400F1FF3322
:1003E0006BD2A24569D90238744440EA0940A0FBA7
:1003F0000289A4EB0A044C45C2464B4654D351D063
:10040000002E69D0B1EB0A0564EB030404FA0CFC7E
:10041000FD40FC404CEA0505C6E90054002747E7CB
:10042000C2F1200320FA03F7954001FA02F021FA05
:1004300003F34FEA154E3843010CB3FBFEF71FFAE6
:1004400085F80EFB173341EA034107FB08F38B42A3
:1004500004FA02F407D9691807F1FF3C2FD28B4246
:100460002DD9023F2944CB1A81B2B3FBFEF00EFB1B
:10047000103341EA034100FB08F38B4207D96918A6
:1004800000F1FF3C17D28B4215D902382944C91A12
:1004900040EA07473BE73746304609E70746E7E6C5
:1004A0001846FBE64145ABD2B8EB020A69EB0E02F7
:1004B00001381346A4E76046E9E7184695E7674622
:1004C000D1E781467CE702382C4447E7ACF1020CC7
:1004D0002B442FE7384608E73746E9E6704700BF68
:1004E000034613F8012B002AFBD1181A0138704774
:1004F00001F0FF01102A2BDB10F0070F08D010F8D5
:10050000013B013A8B422DD010F0070F42B3F6D1D8
:10051000F0B441EA012141EA014122F007047FF0F1
:1005200000070023F0E80256083C85EA010586EA48
:10053000010685FA47F5A3FA87F586FA47F6A5FA84
:1005400087F68EB9EED1F0BC01F0FF0102F0070290
:1005500032B110F8013B013A83EA010313B1F8D13B
:100560000020704701387047002D06BF354603381C
:10057000073815F0010F07D1013015F4807F02BF55
:10058000013015F4C03F0130F0BC0138704700BFA6
:1005900070B50D4E0D4CA41BA4100025A54209D129
:1005A0000B4E0C4C01F07CFEA41BA4100025A542B0
:1005B00005D170BD56F8253098470135EEE756F85D
:1005C000253098470135F2E7902300089023000872
:1005D000902300089423000802440346934200D16C
:1005E000704703F8011BF9E70A4B10B50446186879
:1005F00018B183690BB900F0AFFF132C07D8064878
:1006000050F83430013302D000EBC40010BD00209C
:10061000FCE700BF0C000020AC000020F8B5431C34
:10062000054609D100F052FF132406460027204654
:100630003946ABBE044634602846F8BDF8B50546D9
:1006400000F044FF13240646002720463946ABBE7F
:10065000044634602846F8BD30B585B0CDE90101C7
:100660000392062401AD20462946ABBE044620462F
:10067000FFF7D4FF05B030BD70B50E461546FFF745
:10068000B3FF044630B900F021FF092303604FF0A7
:10069000FF3070BD2A4631460068FFF7DDFF431C7E
:1006A0001FBF6368281A1B186360F2E7F7B50C4692
:1006B0001646FFF799FF054640B900F007FF0923EA
:1006C00003604FF0FF34204603B0F0BD022E03D983
:1006D00000F0FCFE1623F3E7012E12D14368E41864
:1006E000F6D42B680A26CDE900346F4630463946E9
:1006F000ABBE06463046FFF791FF0028E1DB6C6099
:10070000E1E7022EEDD102AF036847F8083D0C2661
:1007100030463946ABBE06463046FFF77FFF431CE6
:10072000CFD00444DDE7FFF7C1BF30B585B0CDE9D8
:1007300001010392052401AD20462946ABBE0446C3
:100740002046FFF76BFF05B030BD70B50E4615466D
:10075000FFF74AFF044630B900F0B8FE09230360F2
:100760004FF0FF3070BD2A4631460068FFF7DDFFCD
:10077000021EF5DB6368A81A0344AA426360F1D144
:100780000020BDE87040FFF759BF37B502AD022425
:1007900045F8040D20462946ABBE04462046FFF727
:1007A0003DFF03B030BD000038B50546FFF71CFF24
:1007B000044630B900F08AFE092303604FF0FF3091
:1007C00038BD013D012D09D8094B9A681B699A4231
:1007D00004D14FF0FF3303600020F1E72068FFF7FA
:1007E000D4FF0028ECD14FF0FF332360E8E700BFCF
:1007F000AC0000200D4B196810B5024609B90C4930
:1008000019601868694602448A4206D809490A4CA8
:100810000968A14208D08A4206D900F057FE0C238D
:1008200003604FF0FF3010BD1A60FCE79C00002011
:100830006001002070000020ADDEFECA70B50C46DD
:10084000FFF7D2FE064630B900F040FE09230360F0
:100850004FF0FF3070BD636843F4005363604FF4A2
:10086000806363640C2528463146ABBE05462846A6
:10087000FFF7D4FE431C1CBF20610020EAE70B46B3
:1008800010B50021044658221846FFF7A5FE014680
:100890002046BDE81040FFF7D1BF38B50D460446ED
:1008A000582200212846FFF797FE2046002100F03D
:1008B00011F8431C04460BD06B6843F401436B6092
:1008C0002946FFF7BBFF05462046FFF76DFF2C4684
:1008D000204638BD2DE9F0472B4B96B082460E4698
:1008E0000025984653F83540611C4FEAC50736D0BD
:1008F0000135142DF6D100F0E9FD182303604FF007
:10090000FF343CE0C6F3004440F20163B20748BF45
:1009100044F002041E4218BF44F00404330748BFE9
:1009200024F00404504648BF44F00804CDF800A069
:10093000FFF7D6FDCDE90140012420464946ABBE74
:100940000446002C06DB4744002348F835407B6012
:100950002C4614E02046FFF771FE04460FE006F433
:100960002063B3F5206FE946CCD149465046FFF7E6
:1009700094FF0130C6D000F0A9FD1123036020468A
:1009800016B0BDE8F08700BFAC0000202DE9F743AA
:1009900007468846294800211546FFF79BFF2A464F
:1009A000044600213846FFF717FE631C15D0204689
:1009B000FFF71AFE0C26814630464946ABBE064676
:1009C0003046FFF72BFE032802DD0338A84208DC7F
:1009D0002046FFF7E9FE4FF0FF34204603B0BDE8A4
:1009E000F08304220DEB02012046FFF745FE0328A9
:1009F000EEDD9DF80430532BEAD19DF80530482BED
:100A0000E6D19DF80630462BE2D19DF80730422B07
:100A1000DED1012241462046FFF748FE0028D7DB01
:100A20002A4639462046FFF727FE05462046FFF7AF
:100A3000BBFE2846FFF7F2FD0446CEE7D4220008AD
:100A400037B50A4D0A4C0021012201A82960226015
:100A5000FFF79CFF002807DD9DF8043003F001023A
:100A600003F002032A60236003B030BD740000204D
:100A70007800002010B5044C2268002A01DAFFF744
:100A8000DFFF206810BD00BF780000202DE9F04F87
:100A900085B0DFF8B090CDF80490032300240393D1
:100AA0000DF104080294012528464146ABBE0546D7
:100AB000204E214A356023464FF0FF31144642F85C
:100AC00033100133142BFAD1FFF7D4FF1B4DD0B1F3
:100AD0004FF0030A0423CDF804900127CDF80CA0B1
:100AE000029338464146ABBE8346154BCDF8049081
:100AF000C3F800B00823CDF80CA002933846414655
:100B0000ABBE07462F602B68013302BF0C4B1B683E
:100B10002B603368236000266660FFF7ABFF30B1BF
:100B2000074B1B68C4E902362B68C4E9043605B0DC
:100B3000BDE8F08FA4000020AC000020A000002041
:100B4000A8000020EA22000870B5FFF74DFD092536
:100B5000044620B900F0BAFC0560204670BD284666
:100B60002146ABBE0446012CF7D000F0AFFC0024B8
:100B70000646132528462146ABBE05463560ECE700
:100B800030B595B03022002108A8FFF725FD0024DC
:100B90000394049405940694079401941B4B1A6CD7
:100BA00042F080521A641B6C03F080530193019B46
:100BB0000294174A136823F4404343F4004313603C
:100BC000136803F440430293029B02250895012316
:100BD0000B9310230C930E950F9410934FF4A8735E
:100BE0001193042312930723139308A800F032F9FA
:100BF0000F230393049505944FF4805306930794B1
:100C0000294603A800F088FB15B030BD003802402B
:100C10000070004008B500F095F8FFF7B1FF154BE4
:100C20001A6B42F001021A635A6C42F480725A64E1
:100C3000114A136843F00C031360104B00229A60B2
:100C400001225A639A6842F001029A60FFF71EFF80
:100C50000A4A936843F080439360084B1B6813F083
:100C6000020FFAD0054BD96C054B1960054800F00E
:100C700057FDEDE70038024000000240002001402F
:100C800098000020F022000800B583B000210091F8
:100C90000C4B5A6C42F480425A645A6C02F4804203
:100CA0000092009A01911A6C42F080521A641B6CF7
:100CB00003F080530193019B072000F06FF803B00D
:100CC0005DF804FB003802407047FEE7FEE7FEE7F0
:100CD000FEE770477047704708B500F04DF808BD53
:100CE000054BD3F8882042F47002C3F888204FF0F7
:100CF00000629A60704700BF00ED00E010B5044646
:100D00000E4B18784FF47A73B3FBF0F30C4A10686B
:100D1000B0FBF3F000F088F868B90F2C01D901207E
:100D20000AE0002221464FF0FF3000F049F8034B63
:100D30005C60002000E0012010BD00BF0400002026
:100D40000000002008B50B4B1A6842F400721A60CC
:100D50001A6842F480621A601A6842F480721A605B
:100D6000032000F01BF80020FFF7C8FFFFF78CFFFF
:100D7000002008BD003C0240034A1168034B1B7869
:100D80000B441360704700BF540100200400002092
:100D9000014B1868704700BF54010020074AD36810
:100DA00023F4E0631B041B0C000200F4E060184312
:100DB00040F0BF6040F40030D060704700ED00E0CC
:100DC00030B4174BDB68C3F30223C3F10704042CD0
:100DD00028BF04241D1D062D18D9033B4FF0FF35F5
:100DE00005FA04F421EA0401994005FA03F322EA22
:100DF0000303194300280BDB0901C9B200F160406D
:100E000000F5614080F8001330BC70470023E5E72F
:100E100000F00F000901C9B2024B1954F4E700BFFA
:100E200000ED00E014ED00E00138B0F1807F0AD25F
:100E3000064B5860064AF02182F823100020986083
:100E400007221A6070470120704700BF10E000E0E1
:100E500000ED00E0002800F0E48170B582B00446A7
:100E6000036813F0010F3BD0A74B9B6803F00C0302
:100E7000042B2CD0A44B9B6803F00C03082B21D02F
:100E80006368B3F5803F4FD0B3F5A02F52D09E4B8F
:100E90001A6822F480321A601A6822F480221A60DA
:100EA0006368002B50D0FFF773FF0546964B1B6815
:100EB00013F4003F14D1FFF76BFF401B6428F5D9F2
:100EC0000320B3E1904B5B6813F4800FD8D08E4BB6
:100ED0001B6813F4003F03D06368002B00F0A3816C
:100EE000236813F0020F55D0874B9B6813F00C0F4B
:100EF0003ED0854B9B6803F00C03082B33D0E3688E
:100F0000002B68D0814B01221A60FFF741FF054694
:100F10007D4B1B6813F0020F54D1FFF739FF401BC4
:100F20000228F5D9032081E1774A136843F480331E
:100F30001360B5E7744B1A6842F480221A601A688D
:100F400042F480321A60ABE7FFF722FF05466E4B92
:100F50001B6813F4003FC3D0FFF71AFF401B64283F
:100F6000F5D9032062E1684B5B6813F4800FC6D1AA
:100F7000654B1B6813F0020F04D0E368012B01D00E
:100F8000012053E1604A136823F0F803216943EA22
:100F9000C1031360236813F0080F40D0636963B383
:100FA0005B4B01221A60FFF7F3FE0546564B5B6F61
:100FB00013F0020F33D1FFF7EBFE401B0228F5D9E7
:100FC000032033E1504A136823F0F803216943EA10
:100FD000C1031360DEE74D4B00221A60FFF7D8FE15
:100FE0000546494B1B6813F0020FD3D0FFF7D0FE24
:100FF000401B0228F5D9032018E1454B00221A6056
:10100000FFF7C6FE0546404B5B6F13F0020F06D09C
:10101000FFF7BEFE401B0228F5D9032006E1236836
:1010200013F0040F79D0384B1B6C13F0805F33D171
:1010300000230193344B1A6C42F080521A641B6CEB
:1010400003F080530193019B0125324B1B6813F47D
:10105000807F23D0A368012B34D0052B38D02A4BB6
:101060001A6F22F001021A671A6F22F004021A673F
:10107000A368002B36D0FFF78BFE0646224B1B6F72
:1010800013F0020F48D1FFF783FE801B41F2883333
:101090009842F3D90320C9E00025D6E71D4A13681A
:1010A00043F480731360FFF773FE0646194B1B6809
:1010B00013F4807FCED1FFF76BFE801B0228F5D999
:1010C0000320B3E0104A136F43F001031367CFE727
:1010D0000D4B1A6F42F004021A671A6F42F00102B8
:1010E0001A67C5E7FFF754FE0646074B1B6F13F060
:1010F000020F11D0FFF74CFE801B41F2883398425B
:10110000F3D9032092E000BF0038024000004742BC
:10111000800E474200700040EDB9A369002B00F03B
:101120008480454A926802F00C02082A51D0022BB2
:1011300017D0424B00221A60FFF72AFE04463E4BAE
:101140001B6813F0007F42D0FFF722FE001B02282D
:10115000F5D903206AE0384A136C23F080531364F6
:10116000DBE7364B00221A60FFF712FE0546324BD2
:101170001B6813F0007F06D0FFF70AFE401B022811
:10118000F5D9032052E0E369226A1343626A43EA15
:101190008213A26A5208013A43EA0243E26A43EA2E
:1011A0000263254A5360254B01221A60FFF7F0FDC8
:1011B0000446214B1B6813F0007F06D1FFF7E8FDC2
:1011C000001B0228F5D9032030E000202EE000208B
:1011D0002CE0012B2CD0184B5B6803F48001E269F2
:1011E000914201D0012021E003F03F02216A8A42AE
:1011F00001D001201AE0616A47F6C0721A408A42A3
:1012000001D0012012E003F44032A16A8A4201D0E9
:1012100001200BE003F07063E26A93420AD00120E0
:1012200004E001207047012000E0002002B070BD02
:101230000120FBE70020F9E7003802406000474248
:10124000324B9B6803F00C03042B5CD0082B01D0BD
:101250002F4870472DE9F04B2C4B5A6802F03F02A3
:101260005B6813F4800F2BD0284B5B68C3F38813A3
:101270001E4600275C010025E41A65EB0705A9015D
:1012800041EA9461A001001B61EB0501CB0043EA38
:101290005073C400A01943EB07014B0243EAD0533B
:1012A0004402204619460023FEF79AFF174B5B685D
:1012B000C3F3014301335B00B0FBF3F0BDE8F08BF7
:1012C000124B5B68C3F388131E4600275C010025A0
:1012D000E41A65EB0705A90141EA9461A001001B2E
:1012E00061EB0501CB0043EA5073C400A01943EB46
:1012F00007018B0243EA90538402204619460023DB
:10130000FEF76EFFD2E70348704700BF0038024087
:101310000024F40000127A00002800F09E8070B5CE
:101320000446504B1B6803F00F038B4209D2CBB22B
:101330004C4A1370136803F00F038B4201D0012055
:1013400070BD236813F0020F17D013F0040F04D000
:10135000454A936843F4E0539360236813F0080F01
:1013600004D0414A936843F4604393603E4A9368D3
:1013700023F0F003A068034393600D46236813F045
:10138000010F32D06368012B21D09A1E012A25D982
:10139000354A126812F0020F61D033498A6822F090
:1013A000030213438B60FFF7F3FC06462E4B9B684A
:1013B00003F00C036268B3EB820F16D0FFF7E8FC72
:1013C000801B41F288339842F0D90320B8E7264ABF
:1013D000126812F4003FE0D10120B1E7224A1268FE
:1013E00012F0007FD9D10120AAE71E4B1B6803F041
:1013F0000F03AB4209D9EAB21A4B1A701B6803F00B
:101400000F03AB4201D001209AE7236813F0040FC9
:1014100006D0154A936823F4E053E1680B439360C8
:10142000236813F0080F07D00F4A936823F4604332
:10143000216943EAC1039360FFF702FF0A4B9B68EF
:10144000C3F30313094AD35CD840094B1860094B16
:101450001868FFF753FC002072E701207047012055
:101460006EE700BF003C024000380240B82200088E
:101470000000002008000020DFF834D0002103E045
:101480000C4B5B58435004310B480C4B42189A42AA
:10149000F6D30B4A02E0002342F8043B094B9A4280
:1014A000F9D3FFF71DFCFFF773F8FFF7B3FB7047A5
:1014B0000080012098230008000000207C0000200C
:1014C0007C0000205C010020FEE70000014B186852
:1014D000704700BF0C000020002310B50446C0E98F
:1014E0000033836081814366C281C0E90433836134
:1014F000194608225C30FFF76FF8054B6362054B15
:10150000A362054BE362054B2462236310BD00BF59
:101510007117000893170008CB170008EF17000891
:10152000014900F085B800BF4919000870B54A1E8E
:10153000682555430E4605F1740100F097F80446FE
:1015400040B10021C0E900160C30A06005F168022E
:10155000FFF742F8204670BD836910B5044633BBDF
:10156000C0E912330365124B124A1B68826298422B
:1015700004BF0123836100F01FF86060204600F083
:101580001BF8A060204600F017F80022E06004215C
:101590006068FFF7A1FF01220921A068FFF79CFF07
:1015A00002221221E068FFF797FF0123A36110BD1B
:1015B000D022000821150008F8B51B4B1E68B3693E
:1015C000074613B93046FFF7C7FF4836D6E901345E
:1015D000013B03D5336833B13668F7E7B4F90C50F3
:1015E0006DB16834F4E704213846FFF79FFF30609F
:1015F0000028F1D10C233B6004462046F8BD0B4B7C
:101600006566C4E90055A560C4E90335C4E905551C
:101610000822294604F15C00FEF7DEFFC4E90D55FF
:10162000C4E91255E9E700BFD02200080100FFFF1E
:101630002DE9F8438046894600F14804002614B994
:101640003046BDE8F883D4E90175013F01D524682F
:10165000F5E7AB89012B07D9B5F90E30013303D07B
:1016600029464046C84706436835EEE770B5CD1CAD
:1016700025F0030508350C2D38BF0C25002D064636
:1016800001DBA94203D90C233360002070BD00F0B8
:1016900097F9214A1468214691B9204C23681BB957
:1016A000304600F055F820602946304600F050F8EA
:1016B000431C24D10C233360304600F082F9E4E768
:1016C0000B685B1B18D40B2B0FD90B60CD50CC18BB
:1016D000304600F076F904F10B00231D20F00700DE
:1016E000C31AD3D05A42E250D0E78C424B6816BF9F
:1016F000636013600C46EBE70C464968CCE7C41CFA
:1017000024F00304A04205D0211A304600F020F84E
:101710000130CFD02560DBE74C01002050010020D4
:101720000FB40A4B13B51C6824B1A36913B9204642
:10173000FFF712FF05AB049AA1680193204600F061
:10174000B9F902B0BDE8104004B070470C000020A9
:1017500038B5064C0023054608462360FFF74AF8D3
:10176000431C02D1236803B12B6038BD580100200F
:1017700010B50C46B1F90E1000F03AFC0028ABBFD2
:10178000636DA3891B1823F48053ACBF6365A381E9
:1017900010BD2DE9F0411F468B89DB0505460C463F
:1017A000164605D502230022B1F90E1000F0F6F816
:1017B000A389B4F90E1023F48053A38132463B462B
:1017C0002846BDE8F04100F017B810B50C46B1F955
:1017D0000E1000F0E3F8431CA38915BF606523F4E5
:1017E000805343F48053A38118BFA38110BDB1F986
:1017F0000E1000F013B8000038B5074C0546084637
:101800001146002222601A46FEF79FFF431C02D1B8
:10181000236803B12B6038BD5801002038B5064C51
:101820000023054608462360FEF7BEFF431C02D195
:10183000236803B12B6038BD580100208A892DE947
:10184000F041054610070C4658D44B68002B05DCC8
:101850000B6C002B02DC0020BDE8F081E66A002E54
:10186000F9D0002312F480522F68216A2B6032D005
:10187000606DA3895A0705D56368C01A636B0BB105
:10188000236CC01A00230246E66A216A2846B04744
:10189000431CA38906D129681D2948D8294ACA4072
:1018A000D60744D500226260D9042269226004D59B
:1018B000421C01D12B6803B96065616B2F60002960
:1018C000C9D004F14403994202D0284600F07AF8C6
:1018D00000206063C0E701232846B047411CC8D1FF
:1018E0002B68002BC5D01D2B01D0162B01D12F60EA
:1018F000B1E7A38943F04003A381ADE70F69002F4F
:10190000A9D093070E6808BF4B690F6018BF00236A
:10191000A6EB07088B60B8F1000F9CDD43463A4602
:10192000216AA66A2846B047002806DCA38943F04E
:101930004003A3814FF0FF308EE70744A8EB000877
:10194000E9E700BF0100402038B50B6905460C46A9
:10195000DBB118B183690BB9FFF7FEFD0C4B9C425C
:1019600009D16C68B4F90C307BB121462846BDE83A
:101970003840FFF763BF074B9C4201D1AC68F1E7E9
:10198000054B9C4208BFEC68ECE7002038BD00BF67
:101990001423000834230008F422000838B5074C4B
:1019A000054608461146002222601A46FEF7BBFE95
:1019B000431C02D1236803B12B6038BD58010020BD
:1019C0007047704738B50546002945D051F8043CAA
:1019D0000C1F002BB8BFE418FFF7F2FF1F4A136873
:1019E000104633B9636014602846BDE83840FFF7FD
:1019F000E8BFA3420CD921686218934204BF1A6859
:101A00005B68636004BF521822600460ECE7134611
:101A10005A680AB1A242FAD919685818A0420BD1E3
:101A200020680144581882421960DDD1106852685C
:101A30005A6001441960D7E702D90C232B60D3E721
:101A4000206821188A4204BF11685268626004BF8E
:101A5000091821605C60C7E738BD00BF4C01002059
:101A60009368013B002B10B4936008DA9469A34299
:101A700001DB0A2903D15DF8044B00F0CBBA1368EF
:101A8000581C1060197008465DF8044B7047F8B593
:101A900006460F461446D518AC4201D1002007E097
:101AA0003A4614F8011B3046FFF7DAFF431CF3D126
:101AB000F8BD00002DE9F04F0C469DB017461D46BD
:101AC000064618B183690BB9FFF746FD7C4B9C4273
:101AD00058D17468A38918075ED52369002B5BD0A1
:101AE0000023099320238DF8293030238DF82A30E4
:101AF00003954FF0010BB846454615F8013B0BB175
:101B0000252B54D1B8EB070A0BD053463A46214651
:101B10003046FFF7BCFF013000F0C280099B534400
:101B2000099398F80030002B00F0BA8000234FF0A2
:101B3000FF32CDE90523049307938DF853301A93B0
:101B4000A846052218F8011B5E48FEF7D1FC049B4D
:101B500078BBD90644BF20228DF853201A0744BF12
:101B60002B228DF853202A782A2A2AD0079AA846B1
:101B700000200A25414611F8013B303B092B69D969
:101B800060B324E0504B9C4201D1B468A2E74F4BB4
:101B90009C4208BFF4689DE72146304600F08CFA6D
:101BA00000289DD04FF0FF301DB0BDE8F08FA84653
:101BB000A2E7444A801A0BFA00F018430490454605
:101BC000BEE7039A111D12680391002A01DB0792F8
:101BD00004E0524243F002030792049398F8003065
:101BE0002E2B0ED198F801302A2B38D1039B1A1DC9
:101BF0001B680392002BB8BF4FF0FF3308F10208B7
:101C00000593334D98F8001003222846FEF770FC28
:101C100040B14023401B03FA00F0049B034308F14A
:101C20000108049398F800102A488DF8281006221D
:101C300008F10107FEF75CFC002837D0264B1BBBE0
:101C4000039B073323F0070308330393099B4B449B
:101C5000099350E705FB0232012088468AE70023FA
:101C600008F10108059319460A25404610F8012B92
:101C7000303A092A03D9002BC3D00591C1E705FBEF
:101C8000012101238046F0E703AB00932246134B6A
:101C900004A93046AFF30080B0F1FF3F8146D5D1B3
:101CA000A3895B063FF57EAF09987DE703AB009300
:101CB00022460A4B04A9304600F088F8ECE700BF42
:101CC000142300085423000834230008F4220008D9
:101CD0005A2300085E230008000000008F1A000845
:101CE0002DE9F04791461F468A680B69DDF8208090
:101CF0009342B8BF1346C9F8003091F84320064616
:101D00000C4612B10133C9F800302368990642BF6E
:101D1000D9F800300233C9F80030256815F00605FF
:101D200007D104F1190AE368D9F800209B1AAB42E5
:101D300028DC94F843302268003318BF0123920650
:101D40002DD404F1430239463046C047013020D03B
:101D50002368E568D9F8002003F00603042B08BFC8
:101D6000AD1AA36822690CBF25EAE57500259342E8
:101D7000C4BF9B1AED184FF000091A344D451AD113
:101D8000002008E00123524639463046C047013062
:101D900003D14FF0FF30BDE8F0870135C3E7E1180C
:101DA0005A1C302081F84300224494F8451082F8F0
:101DB00043100233C5E70123224639463046C04767
:101DC0000130E6D009F10109D8E700002DE9F04320
:101DD00001F1430C0C46097E85B06E291746064674
:101DE00098460C9A00F0B38022D8632936D00AD8DE
:101DF000002900F0B980582900F0838004F14205E1
:101E000084F8421032E0642901D06929F6D12068B3
:101E10001368050603F104012AD51B681160002B25
:101E200003DA2D225B4284F843206F480A2239E00E
:101E3000732900F09D8008D86F2920D07029DDD14A
:101E4000236843F02003236003E0752917D0782925
:101E5000D4D1782384F84530644855E01368191DBF
:101E60001B68116004F1420584F8423001238CE0C4
:101E70001B68116010F0400F18BF1BB2CFE713684A
:101E80002568181D1060280601D51B6802E0680649
:101E9000FBD51B8854486F2914BF0A220822002151
:101EA00084F843106568A560002DC0F29580216814
:101EB00021F004012160002B3DD1002D40F08E80E7
:101EC0006546082A0BD12368DB0708D523696268B9
:101ED0009A42DEBF302305F8013C05F1FF35ACEB3B
:101EE00005032361CDF800803B4603AA2146304616
:101EF000FFF7F6FE01304DD14FF0FF3005B0BDE8E1
:101F0000F083394884F84510136821681D1D1B684B
:101F100015600A060BD5CA0744BF41F020012160B5
:101F20001BB9226822F0200222601022B7E74D067A
:101F300048BF9BB2EFE76546B3FBF2F102FB1133FA
:101F4000C35C05F8013D0B460029F5D1B9E71368DC
:101F500025686169181D106028061B6801D5196085
:101F600002E06A06FBD51980002323616546B9E7C4
:101F70001368191D11601D68626800212846FEF76C
:101F8000B7FA08B1401B606063682361002384F8DE
:101F90004330A7E723692A4639463046C047013017
:101FA000AAD023689B0713D4E068039B9842B8BF6C
:101FB0001846A3E701234A4639463046C047013058
:101FC0009AD00135E368039A9B1AAB42F2DCEBE747
:101FD000002504F11909F5E7002BACD1037884F84A
:101FE000423004F142056CE76523000876230008BF
:101FF00038B5074C054608461146002222601A46AD
:10200000FEF73AFB431C02D1236803B12B6038BDB5
:1020100058010020F8B50E461446054618B18369EC
:102020000BB9FFF799FA214B9C422AD16C68A3693E
:10203000A360A3891A072ED5236963B32369206897
:10204000C01A6369F6B28342374604DC214628464B
:10205000FFF77AFC28BBA368013BA36023685A1CE6
:1020600022601E7063690130834204D0A389DB07BC
:1020700019D50A2E17D121462846FFF765FC90B1E5
:102080000FE00B4B9C4201D1AC68D0E7094B9C425E
:1020900008BFEC68CBE72146284600F00DF8002881
:1020A000CCD04FF0FF373846F8BD00BF14230008EE
:1020B00034230008F4220008324B70B51D68064630
:1020C0000C4625B1AB6913B92846FFF745FA2E4BEC
:1020D0009C420FD16C68B4F90C309AB215072CD41D
:1020E000D00611D40922326043F04003A3814FF09F
:1020F000FF303EE0254B9C4201D1AC68EBE7244B1E
:102100009C4208BFEC68E6E7510712D5616B41B10C
:1021100004F14403994202D03046FFF753FC0023F8
:102120006363A38923F02403A381002363602369ED
:102130002360A38943F00803A38123694BB9A389D2
:1021400003F42073B3F5007F03D02146304600F03E
:1021500045F8A28912F001030CD00023A360636943
:102160005B42A361236953B9B4F90C3013F08000CA
:10217000BAD170BD920758BF6369A360F2E700202F
:10218000F7E700BF0C0000201423000834230008E8
:10219000F422000870B50E46B1F90E10002996B071
:1021A00014461D4607DA00232B60B3891A0610D4A3
:1021B0004FF480630EE06A4600F050F80028F2DB2E
:1021C000019A02F47042A2F500535A425A412A6021
:1021D000EEE740230020236016B070BD8B8973B5F5
:1021E0009D0706460C4607D504F14703236023618B
:1021F0000123636102B070BD01AB6A46FFF7CAFFFD
:10220000009905463046FFF731FA48B9B4F90C3069
:102210009A05EFD423F0030343F00203A381E3E71D
:102220000D4BB362A389206043F08003A381009B20
:102230006361019B20615BB1B4F90E10304600F080
:102240001FF828B1A38923F0030343F00103A381FE
:10225000A3891D43A581CDE72115000838B5074C9A
:1022600000230546084611462360FEF708FB431C81
:1022700002D1236803B12B6038BD00BF5801002094
:1022800038B5064C0023054608462360FEF75CFC83
:10229000431C02D1236803B12B6038BD58010020D4
:1022A000F8B500BFF8BC08BC9E467047F8B500BF43
:0822B000F8BC08BC9E46704713
:1022B80000000000000000000102030406070809EE
:1022C8000000000001020304100000203A73656D4D
:1022D80069686F7374696E672D6665617475726578
:1022E80073003A747400000025640A0000000000BE
:1022F80000000000000000000000000000000000D6
:1023080000000000000000000000000000000000C5
:1023180000000000000000000000000000000000B5
:1023280000000000000000000000000000000000A5
:102338000000000000000000000000000000000095
:10234800000000000000000000000000232D302BDA
:102358002000686C4C00656667454647003031329E
:1023680033343536373839414243444546003031F5
:102378003233343536373839616263646566000054
:0823880088DEFF7F0100000068
:04239000C50100087B
:04239400A10100089B
:102398000024F400010000001000000010000020DC
:1023A800000000001423000834230008F422000869
:1023B8000000000000000000000000000000000015
:1023C8000000000000000000000000000000000005
:1023D80000000000000000000000000000000000F5
:1023E80000000000000000000000000000000000E5
:1023F80000000000000000000000000000000000D5
:0C240800ADDEFECAFFFFFFFFFFFFFFFF7D
:040000050800147962
:00000001FF
