:020000040800F2
:100000000080012031140008D10A0008D30A00083A
:10001000D50A0008D70A0008D90A00080000000025
:10002000000000000000000000000000DB0A0008E3
:10003000DD0A000800000000DF0A0008E10A0008ED
:10004000811400088114000881140008811400083C
:10005000811400088114000881140008811400082C
:10006000811400088114000881140008811400081C
:10007000811400088114000881140008811400080C
:100080008114000881140008811400080000000099
:1000900000000000000000000000000081140008C3
:1000A00081140008811400088114000881140008DC
:1000B00081140008811400088114000881140008CC
:1000C00081140008811400088114000881140008BC
:1000D0008114000881140008811400080000000049
:1000E0008114000881140008811400080000000039
:1000F0000000000000000000000000008114000863
:100100000000000081140008811400088114000818
:1001100000000000000000000000000000000000DF
:10012000811400088114000881140008811400085B
:100130008114000800000000000000000000000022
:100140000000000000000000000000008114000812
:10015000811400088114000881140008811400082B
:100160008114000881140008000000000000000055
:10017000000000000000000000000000000000007F
:1001800000000000811400080000000000000000D2
:0401900081140008CE
:1001A00010B5054C237833B9044B13B10448AFF3B1
:1001B00000800123237010BDE0010020000000003A
:1001C000E030000808B5034B1BB103490348AFF307
:1001D000008008BD00000000E4010020E0300008BD
:1001E00053B94AB9002908BF00281CBF4FF0FF319E
:1001F0004FF0FF3000F072B9ADF1080C6DE904CE9C
:1002000000F006F8DDF804E0DDE9022304B07047F1
:100210002DE9F047089E04468846002B4BD18A42C0
:10022000154667D9B2FA82F24AB1C2F1200701FA43
:1002300002F320FA07F7954047EA030894404FEA93
:10024000154E230CB8FBFEF71FFA85FC0EFB178832
:1002500043EA084307FB0CF1994209D9EB1807F16F
:10026000FF3080F01B81994240F21881023F2B44FD
:100270005B1AA4B2B3FBFEF00EFB103344EA034456
:1002800000FB0CFCA44509D92C1900F1FF3380F0C8
:100290000781A44540F2048102382C4440EA07401B
:1002A000A4EB0C0400271EB1D4400023C6E9004390
:1002B0003946BDE8F0878B4209D9002E00F0EB806B
:1002C0000027C6E9000138463946BDE8F087B3FA91
:1002D00083F7002F47D18B4202D3824200F2FA808B
:1002E000841A61EB030301209846002EE0D0C6E992
:1002F0000048DDE702B9FFDEB2FA82F2002A40F0E0
:100300008F80491B4FEA154E1FFA85F80127B1FB74
:10031000FEFC230C0EFB1C1143EA014308FB0CF10D
:10032000994207D9EB180CF1FF3002D2994200F242
:10033000CD808446591AA3B2B1FBFEF00EFB101417
:1003400043EA044408FB00F8A04507D92C1900F142
:10035000FF3302D2A04500F2B6801846A4EB080491
:1003600040EA0C409FE7C7F1200CBB4022FA0CFE8C
:100370004EEA030E01FA07F420FA0CF521FA0CF309
:100380004FEA1E482543B3FBF8F92C0C08FB193340
:100390001FFA8EFA44EA034309FB0AF49C4202FA6C
:1003A00007F200FA07F10BD91EEB030309F1FF3046
:1003B00080F087809C4240F28480A9F10209734456
:1003C0001B1BADB2B3FBF8F008FB103345EA034446
:1003D00000FB0AFAA24508D91EEB040400F1FF3322
:1003E0006BD2A24569D90238744440EA0940A0FBA7
:1003F0000289A4EB0A044C45C2464B4654D351D063
:10040000002E69D0B1EB0A0564EB030404FA0CFC7E
:10041000FD40FC404CEA0505C6E90054002747E7CB
:10042000C2F1200320FA03F7954001FA02F021FA05
:1004300003F34FEA154E3843010CB3FBFEF71FFAE6
:1004400085F80EFB173341EA034107FB08F38B42A3
:1004500004FA02F407D9691807F1FF3C2FD28B4246
:100460002DD9023F2944CB1A81B2B3FBFEF00EFB1B
:10047000103341EA034100FB08F38B4207D96918A6
:1004800000F1FF3C17D28B4215D902382944C91A12
:1004900040EA07473BE73746304609E70746E7E6C5
:1004A0001846FBE64145ABD2B8EB020A69EB0E02F7
:1004B00001381346A4E76046E9E7184695E7674622
:1004C000D1E781467CE702382C4447E7ACF1020CC7
:1004D0002B442FE7384608E73746E9E6704700BF68
:1004E00001F0FF01102A2BDB10F0070F08D010F8E5
:1004F000013B013A8B422DD010F0070F42B3F6D1E9
:10050000F0B441EA012141EA014122F007047FF001
:1005100000070023F0E80256083C85EA010586EA58
:10052000010685FA47F5A3FA87F586FA47F6A5FA94
:1005300087F68EB9EED1F0BC01F0FF0102F00702A0
:1005400032B110F8013B013A83EA010313B1F8D14B
:100550000020704701387047002D06BF354603382C
:10056000073815F0010F07D1013015F4807F02BF65
:10057000013015F4C03F0130F0BC0138704700BFB6
:1005800070B50D4E0D4CA41BA4100025A54209D139
:100590000B4E0C4C02F0A4FDA41BA4100025A54298
:1005A00005D170BD56F8253098470135EEE756F86D
:1005B000253098470135F2E7803300088033000882
:1005C000803300088433000802440346934200D17C
:1005D000704703F8011BF9E70A4B10B50446186889
:1005E00018B183690BB900F093FF132C07D80648A4
:1005F00050F83430013302D000EBC40010BD0020AD
:10060000FCE700BF0C00002000020020F8B5431CEE
:10061000054609D100F036FF132406460027204680
:100620003946ABBE044634602846F8BDF8B50546E9
:1006300000F028FF13240646002720463946ABBEAB
:10064000044634602846F8BD30B585B0CDE90101D7
:100650000392062401AD20462946ABBE044620463F
:10066000FFF7D4FF05B030BD70B50E461546FFF755
:10067000B3FF044630B900F005FF092303604FF0D3
:10068000FF3070BD2A4631460068FFF7DDFF431C8E
:100690001FBF6368281A1B186360F2E7F7B50C46A2
:1006A0001646FFF799FF054640B900F0EBFE092317
:1006B00003604FF0FF34204603B0F0BD022E03D993
:1006C00000F0E0FE1623F3E7012E12D14368E41890
:1006D000F6D42B680A26CDE900346F4630463946F9
:1006E000ABBE06463046FFF791FF0028E1DB6C60A9
:1006F000E1E7022EEDD102AF036847F8083D0C2672
:1007000030463946ABBE06463046FFF77FFF431CF6
:10071000CFD00444DDE7FFF7C1BF30B585B0CDE9E8
:1007200001010392052401AD20462946ABBE0446D3
:100730002046FFF76BFF05B030BD70B50E4615467D
:10074000FFF74AFF044630B900F09CFE092303601E
:100750004FF0FF3070BD2A4631460068FFF7DDFFDD
:10076000021EF5DB6368A81A0344AA426360F1D154
:100770000020BDE87040FFF759BF37B502AD022435
:1007800045F8040D20462946ABBE04462046FFF737
:100790003DFF03B030BD000038B50546FFF71CFF34
:1007A000044630B900F06EFE092303604FF0FF30BD
:1007B00038BD013D012D09D8094B9A681B699A4241
:1007C00004D14FF0FF3303600020F1E72068FFF70A
:1007D000D4FF0028ECD14FF0FF332360E8E700BFDF
:1007E000000200200D4B196810B5024609B90C49EA
:1007F00019601868694602448A4206D809490A4CB9
:100800000968A14208D08A4206D900F03BFE0C23B9
:1008100003604FF0FF3010BD1A60FCE7FC010020C0
:10082000B002002070000020ADDEFECA70B50C469C
:10083000FFF7D2FE064630B900F024FE092303601C
:100840004FF0FF3070BD636843F4005363604FF4B2
:10085000806363640C2528463146ABBE05462846B6
:10086000FFF7D4FE431C1CBF20610020EAE70B46C3
:1008700010B50021044658221846FFF7A5FE014690
:100880002046BDE81040FFF7D1BF70B5FFF7A4FECA
:100890000925044620B900F0F5FD0560204670BD2D
:1008A00028462146ABBE0446012CF7D000F0EAFDF5
:1008B00000240646132528462146ABBE0546356072
:1008C000ECE7000030B587B0002401940294039453
:1008D0000494059400940E4B1A6B42F001021A63C3
:1008E0001B6B03F001030093009B0A4D224620215D
:1008F000284600F085FA20230193012302930394F4
:10090000049401A9284600F0A9F907B030BD00BF42
:100910000038024000000240114B1A6B42F0010205
:100920001A631A6C42F400321A64A3F560531A6811
:1009300042F0A0021A601A6A42F4EE421A62A3F56B
:10094000DE3341F217129A600422DA60DA6842F06C
:100950000802DA60DA6842F40052DA60704700BFD9
:100960000038024030B595B03022002108A8FFF7CA
:100970002BFE002403940494059406940794019498
:100980001B4B1A6C42F080521A641B6C03F08053AC
:100990000193019B0294174A136823F4404343F4E4
:1009A00000431360136803F440430293029B022543
:1009B000089501230B9310230C930E950F9410931D
:1009C0004FF4A8731193042312930723139308A8D9
:1009D00000F01CFA0F230393049505944FF4805301
:1009E00006930794294603A800F072FC15B030BDA9
:1009F000003802400070004000B59BB0FFF7B2FF26
:100A0000FFF760FF00F0A2F8FFF786FF164800F03E
:100A100099FF164C23689B6812220121144800F0AC
:100A20006BFE2368DB6812220121124800F064FE8D
:100A3000114800F087FF19A9104800F0C7FF199965
:100A40000F4800F00BFF0F4800F008FF684600F069
:100A5000A3FE0D4800F002FF684600F073FF0B484C
:100A600000F070FFE4E700BF203100080C00002018
:100A70003C3100085031000864310008783100082A
:100A80007C31000890310008A8310008743100085A
:100A900000B583B0002100910C4B5A6C42F48042A7
:100AA0005A645A6C02F480420092009A01911A6CC6
:100AB00042F080521A641B6C03F080530193019B37
:100AC000072000F06FF803B05DF804FB0038024027
:100AD0007047FEE7FEE7FEE7FEE7704770477047A6
:100AE00008B500F04DF808BD054BD3F8882042F456
:100AF0007002C3F888204FF000629A60704700BF10
:100B000000ED00E010B504460E4B18784FF47A73F0
:100B1000B3FBF0F30C4A1068B0FBF3F000F088F878
:100B200068B90F2C01D901200AE0002221464FF0BC
:100B3000FF3000F049F8034B5C60002000E001202A
:100B400010BD00BF040000200000002008B50B4BC2
:100B50001A6842F400721A601A6842F480621A60DD
:100B60001A6842F480721A60032000F01BF800201B
:100B7000FFF7C8FFFFF78CFF002008BD003C0240D4
:100B8000034A1168034B1B780B441360704700BF86
:100B9000A802002004000020014B1868704700BF25
:100BA000A8020020074AD36823F4E0631B041B0C4F
:100BB000000200F4E060184340F0BF6040F40030F1
:100BC000D060704700ED00E030B4174BDB68C3F332
:100BD0000223C3F10704042C28BF04241D1D062D85
:100BE00018D9033B4FF0FF3505FA04F421EA04015C
:100BF000994005FA03F322EA0303194300280BDBAB
:100C00000901C9B200F1604000F5614080F80013AD
:100C100030BC70470023E5E700F00F000901C9B2BE
:100C2000024B1954F4E700BF00ED00E014ED00E0C2
:100C30000138B0F1807F0AD2064B5860064AF02195
:100C400082F823100020986007221A607047012064
:100C5000704700BF10E000E000ED00E000230F2B24
:100C600000F2C580F0B583B039E0042200E0002234
:100C7000AA403A4302345E4D45F824205D4A146888
:100C8000F24302EA04054F6817F4803F01D046EAB8
:100C90000405584C2560646802EA04054F6817F49F
:100CA000003F01D046EA0405524C6560A46802EAA0
:100CB00004054F6817F4801F01D046EA04054D4C27
:100CC000A560E46822404D6815F4001F01D046EA93
:100CD0000402484CE26001330F2B00F286800122AF
:100CE0009A400C6804EA0206B242F4D14C68651ED0
:100CF000012D03D9112C01D0122C12D185685F006F
:100D00000324BC4025EA0405CC68BC402C43846025
:100D1000456825EA02054C68C4F300129A402A434C
:100D20004260C4685F000322BA40D24314408D6819
:100D3000BD402543C5604C68022C01D0122C13D154
:100D4000DD08083550F825E003F007044FEA840C6D
:100D50000F2404FA0CF42EEA040E0C6904FA0CF4C5
:100D600044EA0E0440F82540046822404C6804F030
:100D70000304BC40224302604A6812F0805FAAD09C
:100D8000002201921C4A546C44F480445464526C16
:100D900002F480420192019A9C08A51C144A52F860
:100DA000257003F0030295000F22AA4027EA0207EC
:100DB000124A90423FF45BAF02F5806290420ED03F
:100DC00002F5806290420CD002F5806290420AD017
:100DD00002F5806290423FF448AF072248E70122C3
:100DE00046E7022244E7032242E703B0F0BD704722
:100DF00000380140003C0140003802400000024041
:100E000012B909048161704781617047002800F0C0
:100E1000E48170B582B00446036813F0010F3BD043
:100E2000A74B9B6803F00C03042B2CD0A44B9B68AE
:100E300003F00C03082B21D06368B3F5803F4FD03B
:100E4000B3F5A02F52D09E4B1A6822F480321A605C
:100E50001A6822F480221A606368002B50D0FFF7D2
:100E60009BFE0546964B1B6813F4003F14D1FFF719
:100E700093FE401B6428F5D90320B3E1904B5B68D7
:100E800013F4800FD8D08E4B1B6813F4003F03D0AF
:100E90006368002B00F0A381236813F0020F55D084
:100EA000874B9B6813F00C0F3ED0854B9B6803F07B
:100EB0000C03082B33D0E368002B68D0814B012250
:100EC0001A60FFF769FE05467D4B1B6813F0020FA1
:100ED00054D1FFF761FE401B0228F5D9032081E1C0
:100EE000774A136843F480331360B5E7744B1A688C
:100EF00042F480221A601A6842F480321A60ABE72A
:100F0000FFF74AFE05466E4B1B6813F4003FC3D043
:100F1000FFF742FE401B6428F5D9032062E1684BCD
:100F20005B6813F4800FC6D1654B1B6813F0020F8A
:100F300004D0E368012B01D0012053E1604A13681B
:100F400023F0F803216943EAC1031360236813F017
:100F5000080F40D0636963B35B4B01221A60FFF74F
:100F60001BFE0546564B5B6F13F0020F33D1FFF7A4
:100F700013FE401B0228F5D9032033E1504A1368C1
:100F800023F0F803216943EAC1031360DEE74D4B08
:100F900000221A60FFF700FE0546494B1B6813F05C
:100FA000020FD3D0FFF7F8FD401B0228F5D903202C
:100FB00018E1454B00221A60FFF7EEFD0546404B55
:100FC0005B6F13F0020F06D0FFF7E6FD401B02280F
:100FD000F5D9032006E1236813F0040F79D0384BCC
:100FE0001B6C13F0805F33D100230193344B1A6CD8
:100FF00042F080521A641B6C03F080530193019BF2
:101000000125324B1B6813F4807F23D0A368012B8A
:1010100034D0052B38D02A4B1A6F22F001021A6700
:101020001A6F22F004021A67A368002B36D0FFF76C
:10103000B3FD0646224B1B6F13F0020F48D1FFF79A
:10104000ABFD801B41F288339842F3D90320C9E0FD
:101050000025D6E71D4A136843F480731360FFF739
:101060009BFD0646194B1B6813F4807FCED1FFF71A
:1010700093FD801B0228F5D90320B3E0104A136FBB
:1010800043F001031367CFE70D4B1A6F42F00402E0
:101090001A671A6F42F001021A67C5E7FFF77CFD75
:1010A0000646074B1B6F13F0020F11D0FFF774FDBC
:1010B000801B41F288339842F3D9032092E000BFAD
:1010C0000038024000004742800E47420070004056
:1010D000EDB9A369002B00F08480454A926802F0C4
:1010E0000C02082A51D0022B17D0424B00221A6062
:1010F000FFF752FD04463E4B1B6813F0007F42D0C1
:10110000FFF74AFD001B0228F5D903206AE0384AA0
:10111000136C23F080531364DBE7364B00221A6014
:10112000FFF73AFD0546324B1B6813F0007F06D0EF
:10113000FFF732FD401B0228F5D9032052E0E36996
:10114000226A1343626A43EA8213A26A5208013A8E
:1011500043EA0243E26A43EA0263254A5360254BAD
:1011600001221A60FFF718FD0446214B1B6813F09B
:10117000007F06D1FFF710FD001B0228F5D90320E0
:1011800030E000202EE000202CE0012B2CD0184B6A
:101190005B6803F48001E269914201D0012021E003
:1011A00003F03F02216A8A4201D001201AE0616AFD
:1011B00047F6C0721A408A4201D0012012E003F4BF
:1011C0004032A16A8A4201D001200BE003F0706333
:1011D000E26A93420AD0012004E001207047012016
:1011E00000E0002002B070BD0120FBE70020F9E71D
:1011F0000038024060004742324B9B6803F00C030A
:10120000042B5CD0082B01D02F4870472DE9F04B00
:101210002C4B5A6802F03F025B6813F4800F2BD00E
:10122000284B5B68C3F388131E4600275C0100252A
:10123000E41A65EB0705A90141EA9461A001001BCE
:1012400061EB0501CB0043EA5073C400A01943EBE6
:1012500007014B0243EAD0534402204619460023BB
:10126000FEF7BEFF174B5B68C3F3014301335B001E
:10127000B0FBF3F0BDE8F08B124B5B68C3F388134F
:101280001E4600275C010025E41A65EB0705A9014D
:1012900041EA9461A001001B61EB0501CB0043EA28
:1012A0005073C400A01943EB07018B0243EA90532B
:1012B0008402204619460023FEF792FFD2E7034836
:1012C000704700BF003802400024F40000127A008A
:1012D000002800F09E8070B50446504B1B6803F058
:1012E0000F038B4209D2CBB24C4A1370136803F040
:1012F0000F038B4201D0012070BD236813F0020F51
:1013000017D013F0040F04D0454A936843F4E05318
:101310009360236813F0080F04D0414A936843F4A4
:10132000604393603E4A936823F0F003A068034350
:1013300093600D46236813F0010F32D06368012BD0
:1013400021D09A1E012A25D9354A126812F0020FBF
:1013500061D033498A6822F0030213438B60FFF7A0
:101360001BFC06462E4B9B6803F00C036268B3EB34
:10137000820F16D0FFF710FC801B41F28833984291
:10138000F0D90320B8E7264A126812F4003FE0D1F2
:101390000120B1E7224A126812F0007FD9D1012062
:1013A000AAE71E4B1B6803F00F03AB4209D9EAB250
:1013B0001A4B1A701B6803F00F03AB4201D00120D7
:1013C0009AE7236813F0040F06D0154A936823F4B4
:1013D000E053E1680B439360236813F0080F07D0D4
:1013E0000F4A936823F46043216943EAC103936081
:1013F000FFF702FF0A4B9B68C3F30313094AD35C50
:10140000D840094B1860094B1868FFF77BFB002098
:1014100072E70120704701206EE700BF003C0240E8
:1014200000380240F83000080000002008000020CA
:10143000DFF834D0002103E00C4B5B5843500431FB
:101440000B480C4B42189A42F6D30B4A02E0002399
:1014500042F8043B094B9A42F9D3FFF745FBFFF7EB
:101460008FF8FFF7C9FA7047008001208833000821
:1014700000000020E0010020E0010020B002002078
:10148000FEE70000014B1868704700BF0C00002009
:10149000002310B50446C0E90033836081814366B0
:1014A000C281C0E904338361194608225C30FFF72A
:1014B0008BF8054B6362054BA362054BE362054B5A
:1014C0002462236310BD00BFFD1900081F1A000825
:1014D000571A00087B1A0008014900F0A1B800BFA4
:1014E000551D000870B54A1E682555430E4605F186
:1014F000740100F059F9044640B10021C0E900161A
:101500000C30A06005F16802FFF75EF8204670BD60
:10151000836910B5044633BBC0E912330365124B2F
:10152000124A1B688262984204BF0123836100F063
:101530001FF86060204600F01BF8A060204600F015
:1015400017F80022E06004216068FFF7A1FF012284
:101550000921A068FFF79CFF02221221E068FFF733
:1015600097FF0123A36110BD1C310008D9140008A6
:10157000F8B51B4B1E68B369074613B93046FFF731
:10158000C7FF4836D6E90134013B03D5336833B190
:101590003668F7E7B4F90C506DB16834F4E704210C
:1015A0003846FFF79FFF30600028F1D10C233B60E5
:1015B00004462046F8BD0B4B6566C4E90055A5609E
:1015C000C4E90335C4E905550822294604F15C0045
:1015D000FEF7FAFFC4E90D55C4E91255E9E700BF6B
:1015E0001C3100080100FFFF2DE9F041884600F1A1
:1015F0004804002614B93046BDE8F081D4E90175ED
:10160000013F01D52468F5E7AB89012B06D9B5F96F
:101610000E30013302D02846C04706436835EFE755
:101620002DE9F8438046894600F14804002614B9A4
:101630003046BDE8F883D4E90175013F01D524683F
:10164000F5E7AB89012B07D9B5F90E30013303D08B
:1016500029464046C84706436835EEE72DE9F8437A
:10166000089C8946174602FB03F8064618B18369B1
:101670000BB9FFF74DFF1D4B9C421AD17468A3892B
:101680001B0720D52369F3B10025454529D0A36860
:1016900019F80510013B002BA36004DAA2699342FC
:1016A00019DB0A2917D023685A1C226019700135EA
:1016B000EBE70F4B9C4201D1B468E0E70D4B9C4235
:1016C00008BFF468DBE72146304600F03FFA002807
:1016D000DAD0002505E02246304600F0D3F901308B
:1016E000E5D1B5FBF7F0BDE8F88300BFDC310008B9
:1016F000FC310008BC31000807B5009313460A46C8
:10170000014603480068FFF7A9FF03B05DF804FB3A
:101710000C000020F8B50E46054618B183690BB9D8
:10172000FFF7F6FEAB696C6813B92846FFF7F0FEC9
:10173000164B9C4214D16C6837466368013B002B02
:10174000636017DA2146284600F004F90A2803D01E
:10175000431C15D1B74216D000233B703046F8BD6C
:101760000B4B9C4201D1AC68E6E70A4B9C4208BF98
:10177000EC68E1E723685A1C226018780A28EBD04D
:1017800007F8010BD9E70020E9E700BFDC310008CA
:10179000FC310008BC310008024B01461868FFF715
:1017A000B9BF00BF0C00002070B5CD1C25F00305AB
:1017B00008350C2D38BF0C25002D064601DBA9424B
:1017C00003D90C233360002070BD00F075FB214A63
:1017D0001468214691B9204C23681BB9304600F0AB
:1017E000E5F820602946304600F0E0F8431C24D19B
:1017F0000C233360304600F060FBE4E70B685B1BB2
:1018000018D40B2B0FD90B60CD50CC18304600F0FC
:1018100054FB04F10B00231D20F00700C31AD3D0A2
:101820005A42E250D0E78C424B6816BF63601360A7
:101830000C46EBE70C464968CCE7C41C24F00304D3
:10184000A04205D0211A304600F0B0F80130CFD0C8
:101850002560DBE7A0020020A40200200FB40A4BA1
:1018600013B51C6824B1A36913B92046FFF750FED5
:1018700005AB049AA1680193204600F097FB02B0E3
:10188000BDE8104004B070470C00002070B50E4653
:10189000054618B183690BB9FFF73AFEAB69AC682E
:1018A00013B92846FFF734FE234B9C4217D16C68CE
:1018B000A3891B071DD52369DBB1013EA36816F878
:1018C000011F013BA360E9B9002B2EDA22460A2151
:1018D000284600F0D7F8013011D00A2011E0174B4C
:1018E0009C4201D1AC68E3E7154B9C4208BFEC6811
:1018F000DEE72146284600F029F90028DDD04FF028
:10190000FF3070BD002B04DAA2699A4206DC0A2976
:1019100004D023685A1C22601970CFE7224628465B
:1019200000F0B0F80130C9D1E9E723680A205A1C59
:1019300022601870E5E700BFDC310008FC310008C8
:10194000BC310008024B01461868FFF79FBF00BF7B
:101950000C00002038B50C46054618B183690BB958
:10196000FFF7D6FD0E4B9C420DD16C6821462846F0
:1019700001F0A6F888B96368013B636023685A1CCC
:101980002260187838BD074B9C4201D1AC68EDE766
:10199000054B9C4208BFEC68E8E74FF0FF30F1E7E9
:1019A000DC310008FC310008BC31000838B5064CB9
:1019B0000023054608462360FEF714FF431C02D1AE
:1019C000236803B12B6038BDAC0200200FB40A4B72
:1019D00013B51C6824B1A36913B92046FFF798FD1D
:1019E00005AB049A61680193204600F0CDFE02B079
:1019F000BDE8104004B070470C00002010B50C4644
:101A0000B1F90E1001F040F80028ABBF636DA38957
:101A10001B1823F48053ACBF6365A38110BD2DE96F
:101A2000F0411F468B89DB0505460C46164605D559
:101A300002230022B1F90E1000F0C8F9A389B4F90D
:101A40000E1023F48053A38132463B462846BDE85E
:101A5000F04100F069B810B50C46B1F90E1000F075
:101A6000B5F9431CA38915BF606523F4805343F483
:101A70008053A38118BFA38110BDB1F90E1000F0EF
:101A8000D3B80000F8B50E461446054618B1836970
:101A90000BB9FFF73DFD214B9C422AD16C68A3692D
:101AA000A360A3891A072ED5236963B3236920682D
:101AB000C01A6369F6B28342374604DC21462846E1
:101AC00000F048F928BBA368013BA36023685A1CB7
:101AD00022601E7063690130834204D0A389DB0752
:101AE00019D50A2E17D12146284600F033F990B1B6
:101AF0000FE00B4B9C4201D1AC68D0E7094B9C42F4
:101B000008BFEC68CBE72146284600F01FF8002804
:101B1000CCD04FF0FF373846F8BD00BFDC310008AD
:101B2000FC310008BC31000838B5074C05460846B2
:101B30001146002222601A46FEF7FFFD431C02D127
:101B4000236803B12B6038BDAC020020324B70B566
:101B50001D6806460C4625B1AB6913B92846FFF748
:101B6000D7FC2E4B9C420FD16C68B4F90C309AB262
:101B700015072CD4D00611D40922326043F040035B
:101B8000A3814FF0FF303EE0254B9C4201D1AC6871
:101B9000EBE7244B9C4208BFEC68E6E7510712D5FF
:101BA000616B41B104F14403994202D0304600F028
:101BB00085F900236363A38923F02403A381002311
:101BC000636023692360A38943F00803A381236929
:101BD0004BB9A38903F42073B3F5007F03D02146EA
:101BE000304600F029F9A28912F001030CD000233D
:101BF000A36063695B42A361236953B9B4F90C30F4
:101C000013F08000BAD170BD920758BF6369A3601A
:101C1000F2E70020F7E700BF0C000020DC310008ED
:101C2000FC310008BC31000838B5064C00230546DD
:101C300008462360FEF7B0FD431C02D1236803B1C0
:101C40002B6038BDAC0200208A892DE9F0410546A1
:101C500010070C4658D44B68002B05DC0B6C002B8E
:101C600002DC0020BDE8F081E66A002EF9D00023F6
:101C700012F480522F68216A2B6032D0606DA389E4
:101C80005A0705D56368C01A636B0BB1236CC01A81
:101C900000230246E66A216A2846B047431CA3890E
:101CA00006D129681D2948D8294ACA40D60744D5F3
:101CB00000226260D9042269226004D5421C01D14D
:101CC0002B6803B96065616B2F600029C9D004F1EE
:101CD0004403994202D0284600F0F0F800206063E7
:101CE000C0E701232846B047411CC8D12B68002B10
:101CF000C5D01D2B01D0162B01D12F60B1E7A389D0
:101D000043F04003A381ADE70F69002FA9D09307EB
:101D10000E6808BF4B690F6018BF0023A6EB0708C9
:101D20008B60B8F1000F9CDD43463A46216AA66AF3
:101D30002846B047002806DCA38943F04003A3816E
:101D40004FF0FF308EE70744A8EB0008E9E700BF3B
:101D50000100402038B50B6905460C46DBB118B1CF
:101D600083690BB9FFF7D4FB0C4B9C4209D16C681B
:101D7000B4F90C307BB121462846BDE83840FFF766
:101D800063BF074B9C4201D1AC68F1E7054B9C4215
:101D900008BFEC68ECE7002038BD00BFDC3100086C
:101DA000FC310008BC310008014620B9044B05494C
:101DB0001868FFF735BC044B1868FFF7CBBF00BFAE
:101DC0001C310008551D00080C00002038B5074CD8
:101DD000054608461146002222601A46FEF79BFC83
:101DE000431C02D1236803B12B6038BDAC02002034
:101DF00070B50E46B1F90E10002996B014461D4676
:101E000007DA00232B60B3891A0610D44FF48063DD
:101E10000EE06A4601F0D8F80028F2DB019A02F4DD
:101E20007042A2F500535A425A412A60EEE740231D
:101E30000020236016B070BD8B8973B59D070646E0
:101E40000C4607D504F14703236023610123636136
:101E500002B070BD01AB6A46FFF7CAFF00990546A4
:101E60003046FFF7A1FC48B9B4F90C309A05EFD41D
:101E700023F0030343F00203A381E3E70D4BB362B6
:101E8000A389206043F08003A381009B6361019BD1
:101E900020615BB1B4F90E10304601F0A7F828B10B
:101EA000A38923F0030343F00103A381A3891D4306
:101EB000A581CDE7D91400087047704738B50546AD
:101EC000002945D051F8043C0C1F002BB8BFE41882
:101ED000FFF7F2FF1F4A1368104633B963601460BE
:101EE0002846BDE83840FFF7E8BFA3420CD9216877
:101EF0006218934204BF1A685B68636004BF52189B
:101F000022600460ECE713465A680AB1A242FAD98B
:101F100019685818A0420BD1206801445818824211
:101F20001960DDD1106852685A6001441960D7E722
:101F300002D90C232B60D3E7206821188A4204BF02
:101F400011685268626004BF091821605C60C7E7CD
:101F500038BD00BFA00200209368013B002B10B4E5
:101F6000936008DA9469A34201DB0A2903D15DF882
:101F7000044BFFF787BD1368581C106019700846A2
:101F80005DF8044B7047F8B506460F461446D51861
:101F9000AC4201D1002007E03A4614F8011B30465C
:101FA000FFF7DAFF431CF3D1F8BD00002DE9F04F35
:101FB0000C469DB017461D46064618B183690BB9FD
:101FC000FFF7A6FA7C4B9C4258D17468A389180786
:101FD0005ED52369002B5BD00023099320238DF865
:101FE000293030238DF82A3003954FF0010BB84685
:101FF000454615F8013B0BB1252B54D1B8EB070A28
:102000000BD053463A4621463046FFF7BCFF01301D
:1020100000F0C280099B5344099398F80030002BCC
:1020200000F0BA8000234FF0FF32CDE9052304937E
:1020300007938DF853301A93A846052218F8011B10
:102040005E48FEF74DFA049B78BBD90644BF2022B8
:102050008DF853201A0744BF2B228DF853202A787D
:102060002A2A2AD0079AA84600200A25414611F8B4
:10207000013B303B092B69D960B324E0504B9C42B3
:1020800001D1B468A2E74F4B9C4208BFF4689DE7BA
:1020900021463046FFF75AFD00289DD04FF0FF3013
:1020A0001DB0BDE8F08FA846A2E7444A801A0BFA9B
:1020B00000F0184304904546BEE7039A111D1268CC
:1020C0000391002A01DB079204E0524243F002032D
:1020D0000792049398F800302E2B0ED198F8013017
:1020E0002A2B38D1039B1A1D1B680392002BB8BF03
:1020F0004FF0FF3308F102080593334D98F80010B4
:1021000003222846FEF7ECF940B14023401B03FAB6
:1021100000F0049B034308F10108049398F80010B1
:102120002A488DF82810062208F10107FEF7D8F991
:10213000002837D0264B1BBB039B073323F0070334
:1021400008330393099B4B44099350E705FB023284
:10215000012088468AE7002308F101080593194603
:102160000A25404610F8012B303A092A03D9002BE2
:10217000C3D00591C1E705FB012101238046F0E7AB
:1021800003AB00932246134B04A93046AFF3008003
:10219000B0F1FF3F8146D5D1A3895B063FF57EAF05
:1021A00009987DE703AB009322460A4B04A9304609
:1021B00000F088F8ECE700BFDC3100081C320008B2
:1021C000FC310008BC310008223200082632000829
:1021D00000000000871F00082DE9F04791461F46C8
:1021E0008A680B69DDF820809342B8BF1346C9F8AE
:1021F000003091F8432006460C4612B10133C9F86D
:1022000000302368990642BFD9F800300233C9F87C
:102210000030256815F0060507D104F1190AE368B6
:10222000D9F800209B1AAB4228DC94F8433022688E
:10223000003318BF012392062DD404F1430239461E
:102240003046C047013020D02368E568D9F8002027
:1022500003F00603042B08BFAD1AA36822690CBF64
:1022600025EAE57500259342C4BF9B1AED184FF08F
:1022700000091A344D451AD1002008E001235246C6
:1022800039463046C047013003D14FF0FF30BDE83A
:10229000F0870135C3E7E1185A1C302081F843006C
:1022A000224494F8451082F843100233C5E7012315
:1022B000224639463046C0470130E6D009F10109CF
:1022C000D8E700002DE9F04301F1430C0C46097EEC
:1022D00085B06E291746064698460C9A00F0B380E2
:1022E00022D8632936D00AD8002900F0B9805829AD
:1022F00000F0838004F1420584F8421032E0642942
:1023000001D06929F6D120681368050603F104019C
:102310002AD51B681160002B03DA2D225B4284F85A
:1023200043206F480A2239E0732900F09D8008D8C5
:102330006F2920D07029DDD1236843F0200323606A
:1023400003E0752917D07829D4D1782384F8453053
:10235000644855E01368191D1B68116004F14205BB
:1023600084F8423001238CE01B68116010F0400FAC
:1023700018BF1BB2CFE713682568181D1060280628
:1023800001D51B6802E06806FBD51B8854486F29FD
:1023900014BF0A220822002184F843106568A56052
:1023A000002DC0F29580216821F004012160002BEE
:1023B0003DD1002D40F08E806546082A0BD1236860
:1023C000DB0708D5236962689A42DEBF302305F82F
:1023D000013C05F1FF35ACEB05032361CDF800802E
:1023E0003B4603AA21463046FFF7F6FE01304DD1A9
:1023F0004FF0FF3005B0BDE8F083394884F8451050
:10240000136821681D1D1B6815600A060BD5CA07D5
:1024100044BF41F0200121601BB9226822F0200254
:1024200022601022B7E74D0648BF9BB2EFE7654632
:10243000B3FBF2F102FB1133C35C05F8013D0B461F
:102440000029F5D1B9E7136825686169181D106086
:1024500028061B6801D5196002E06A06FBD51980C1
:10246000002323616546B9E71368191D11601D68D3
:10247000626800212846FEF733F808B1401B60600F
:1024800063682361002384F84330A7E723692A4661
:1024900039463046C0470130AAD023689B0713D481
:1024A000E068039B9842B8BF1846A3E701234A4659
:1024B00039463046C04701309AD00135E368039A67
:1024C0009B1AAB42F2DCEBE7002504F11909F5E7B2
:1024D000002BACD1037884F8423004F142056CE75C
:1024E0002D3200083E3200082DE9F04FADF5237D76
:1024F0000C460021449145919F49A0910DF104089B
:102500009E49DFF87C92CDF8188106469246A1914B
:1025100000930A279AF80030002B00F02A815546D4
:1025200000F078FD15F801BB5844437813F0080318
:102530001CD06368002B12DD00F06CFD23681A7854
:1025400010444278120701D4AA46E3E7459A0132C3
:10255000459262680133013A62602360E9E7A19B1A
:102560002146304698470028E6D0EDE7BBF1250F1D
:1025700040F08280439341939AF801302A2B03D193
:10258000102341930AF10205AA4615F8011BA1F197
:102590003002092A22D903227948FDF7A1FF38B178
:1025A000A0EB090301209840419B18434190AA46A3
:1025B0009AF80030672B0AF101052BD8652B80F0C3
:1025C0009F80472B10D8452B80F09A80002B6CD031
:1025D000252B51D003234793429727E0439B07FBCA
:1025E0000313303B4393CFE75B2B6AD00CD8582BB7
:1025F000F0D1419A42F400724192102242926E2B25
:102600008CBF0423032310E0632B65D0642BE1D13E
:102610004297F4E7702B4BD026D86E2B62D04CD863
:10262000692BD7D100234293032347936368002B80
:1026300068DD419B590607D400F0ECFC23681A784A
:1026400010444278120764D4479B022B73DC6B461C
:10265000224641A9304600F0BFF8012800F08980E9
:1026600002287FF471AF1DE0752BD1D0782BC0D03C
:10267000732BAFD10223D8E76368002B0CDD2368EE
:102680001A785A4575D1013362682360459B013A37
:1026900001336260459357E7A19B21463046984736
:1026A0000028ECD04498002859D14FF0FF305CE06E
:1026B000419A42F0200241929BE70823429304236F
:1026C000B3E72946404600F087FA419B43F04003B8
:1026D000419305460123A8E7419B43F04003419302
:1026E0000023A2E74198C3063FF52EAF009B459A11
:1026F000191D00911B68C0074CBF1A801A6023E7A0
:10270000052392E7A19B214630469847002890D0A8
:10271000C8E7459A013245926268013A002A626030
:1027200002DD0133236087E7A19B214630469847AD
:10273000002881D0B6E7042B06DC6B46224641A96F
:10274000304600F0ADF888E70E4B002B3FF4FCAEAE
:102750006B46224641A93046AFF300807DE7A3894E
:1027600013F0400F18BF4FF0FF300DF5237DBDE88B
:10277000F08F4498F9E700BFE52E0008C12A000851
:1027800022320008000000002DE9F0410C461646F8
:102790001F46054618B183690BB9FEF7B9FE0B4B0E
:1027A0009C4208D16C683B46324621462846BDE82B
:1027B000F041FFF799BE064B9C4201D1AC68F2E7AD
:1027C000044B9C4208BFEC68EDE700BFDC31000819
:1027D000FC310008BC3100082DE9F04115468A683B
:1027E00080460C4632B98A69002A14BF4FF0FF3286
:1027F00001228A602268D1065FBF1A68111D196024
:1028000017680026A369DBB1012B07D12B68626929
:102810001B78D35CA3B9002E32D106E0022B07D07F
:10282000002E2DD1A369012B2AD10120BDE8F08112
:1028300000F0F0FB2B681B78184443781B07EFD49B
:102840002368DA065EBF2B681B783B702A686B68CA
:1028500002F101022A60A26803F1FF3302F1FF32A4
:102860006B6006F1010658BF0137A26042B1002B30
:10287000C8DCD4F880312946404698470028C1D0AA
:10288000236813F0100305D1E2680132E260A26907
:1028900002B13B7023691E4426610020C6E7000098
:1028A0002DE9F04F9A46744B0C468346164693E842
:1028B000070087B003ABA76883E807006F4BA169E7
:1028C0006F4A032908BF1A467B1EB3F5AE7F84BF4B
:1028D00040F25D13A3602368009243F4506388BF05
:1028E0006FF4AE7504F11C0923608CBF7F190027BB
:1028F0004B464FF000080193316803AB022253F8B6
:1029000028000978FDF7ECFD019B30B3B8F1010F09
:102910005AD162682AB92268082142F400726160C3
:102920002260226822F4A0622260A268511EA16087
:102930009AB13268511C316012781A705D1C73684C
:10294000013B002B736007DCD4F8803131465846D8
:102950009847002840F086802B4608F10108B8F11E
:10296000030FC8D162680AB90A22626062684549E9
:1029700060690193891A00F02FF9019B4FF000085C
:102980001D46A3682268002B3AD03168606991F82F
:1029900000C010F80C00002832D0BCF1300F21D15B
:1029A00010051FD508F1010817B10133013FA360DD
:1029B0007368013B002B73601BDD336801333360A8
:1029C000A368013BA360DCE7B8F1020FADD1226838
:1029D00002F4C061B1F5007FBFD11021616042F403
:1029E0008072A1E722F4106222600B782B7001350F
:1029F000DEE7D4F880313146584698470028DFD0CA
:102A00002368D9050CD54D4508D915F8011CD4F813
:102A10007C313246584698476F1E3D464D4529D079
:102A2000226812F0100213D12A706368009E494692
:102A30005846B047DAF8003021681A1DCAF800205D
:102A400011F0200F1B6810D01860E3680133E360B9
:102A5000A5EB0905A844256945442561002007B078
:102A6000BDE8F08F4FF00008CAE7CA074CBF1880D6
:102A70001860EAE70120F2E710310008352D000860
:102A80004D2E00085F32000838B5074C0546084651
:102A90001146002222601A46FDF7E6FD431C02D1D2
:102AA000236803B12B6038BDAC020020838903F09A
:102AB0000903092B01D1FFF777B900207047000007
:102AC000F8B50C46054618B183690BB9FEF720FD31
:102AD0003C4B9C420AD16C68B4F90C200023636023
:102AE00093B29E060CD54FF0FF3067E0364B9C4208
:102AF00001D1AC68F0E7354B9C4208BFEC68EBE7CE
:102B0000580749D4D90605D4092342F040022B6066
:102B1000A281E8E71A070BD521462846FFF71AF9E4
:102B20000028E0D1A389A06023F00803A381A0615D
:102B3000A38943F00403A38123691BB921462846D6
:102B4000FFF77AF9B4F90C70BEB2B3070FD00123C6
:102B5000A3811F4B1F49186806F00906FEF744FDC4
:102B6000092EA78103D121462846FFF76DF8226977
:102B70002260666A6369216A2846B047002860605F
:102B80001DDCB4F90C3017BF002243F0200343F0E2
:102B900040036260A381A6E7616B0029CCD004F1F9
:102BA0004403994202D02846FFF788F9236C6360FA
:102BB00000206063002BBFD0E36B2360F8BD0020D2
:102BC000FCE700BFDC310008FC310008BC31000824
:102BD0001C310008AD2A000870B50B785E2B13BFBE
:102BE0004A1C8A1C4B78002108BF0121441E00F1B9
:102BF000FF0504F8011FAC42FBD113B9013A10469E
:102C000070BD81F00104C454511C11F8015C2D2DDC
:102C100001F1FF360A4606D05D2DF0D00DB93246DF
:102C2000EDE72B46EFE70E785D2EFAD0B342F8DCE5
:102C300001339E42C454FBDC0231E6E72DE9F04744
:102C40008046894692461E460F463D46089815F82E
:102C5000014B00F0DBF92044437813F0080332D134
:102C60002D2C32D17C78BD1C0122002E5DD0102E7F
:102C700009D1302C07D12B7803F0DF03582B4FD12B
:102C80006C7810260235002A14BF4FF000416FF017
:102C900000410027B1FBF6FC384606FB1C1EA4F1E0
:102CA0003003092B17D81C46A64223DD7B1C07D016
:102CB00084451CD301D1A64519DB00FB0640012742
:102CC00015F8014BEBE72F46BFE72B2C04BFBD1CCB
:102CD0007C781A46C9E7A4F14103192B01D8373C87
:102CE000E2E7A4F16103192B04D8573CDCE74FF06D
:102CF000FF37E5E77B1C08D12223C8F800300846DF
:102D0000BAF1000F07D1BDE8F08702B14042BAF135
:102D1000000FF8D00FB105F1FF39CAF80090F2E7C3
:102D20003024002EAFD10826ADE7302CA3D00A26E0
:102D3000A9E7000037B5064C064D2468246A002C2C
:102D400008BF2C460094FFF779FF03B030BD00BFE9
:102D50000C000020740000202DE9F04780468946D1
:102D600092461E460F463D46089815F8014B00F066
:102D70004DF92044437813F0080330D12D2C30D185
:102D80007C78BD1C0121002E5CD0102E09D1302C86
:102D900007D12B7803F0DF03582B4ED16C78102627
:102DA00002354FF0FF320023B2FBF6F206FB02FCC5
:102DB0006FEA0C0C1846A4F13007092F17D83C46CF
:102DC000A64223DD002B1EDB82421CD301D1A44589
:102DD00019DB00FB0640012315F8014BEBE72F46FA
:102DE000C1E72B2C04BFBD1C7C781946CBE7A4F1AE
:102DF0004107192F01D8373CE2E7A4F16107192FE9
:102E000004D8573CDCE74FF0FF33E5E7002B09DA45
:102E10002223C8F800304FF0FF30BAF1000F07D17D
:102E2000BDE8F08701B14042BAF1000FF8D00BB114
:102E300005F1FF39CAF80090F2E73024002EB0D136
:102E40000826AEE7302CA4D00A26AAE737B5064CF0
:102E5000064D2468246A002C08BF2C460094FFF716
:102E60007BFF03B030BD00BF0C00002074000020C9
:102E70002DE9F0410C46496B04F1440399421DD100
:102E80004FF48061FEF790FC18B94FF0FF30BDE8B9
:102E9000F0814FF48063A36394F84630606380F858
:102EA000FF3394F8453080F8FE3394F8443080F8CE
:102EB000FD3300F2FD3020600020E8E7A66B7700CC
:102EC0003A4600F0D2F805460028DED000EB0608AE
:102ED00001463246404600F0BDF8C4F80080C4E91F
:102EE0000D57E9E74B1C70B506460D46144603D155
:102EF0004FF0FF35284670BD18B183690BB9FEF756
:102F000007FB2E4B9C422CD17468B4F90C3023F093
:102F10002003A3819BB2590713D4DA06E8D51B0717
:102F20000BD521463046FEF715FF0028E0D1A389D6
:102F3000A06023F00803A381A061A38943F00403E8
:102F4000A381636B6268EDB2E3B1A36B934212DDC0
:102F500023685A1E226003F8015C636801336360D2
:102F6000C8E7174B9C4201D1B468CEE7154B9C4291
:102F700008BFF468C9E721463046FFF779FF00280B
:102F8000E6D0B5E72169236851B1994208D213F818
:102F9000011CA94204D1013B013223606260A9E710
:102FA000C4E90F3204F1440363630323A36323469C
:102FB00003F8465F23600123D1E700BFDC3100083E
:102FC000FC310008BC31000838B5074C0023054629
:102FD000084611462360FDF74AFC431C02D12368D2
:102FE00003B12B6038BD00BFAC02002038B5064CE1
:102FF0000023054608462360FDF747FC431C02D129
:10300000236803B12B6038BDAC020020D0F8EC007F
:1030100070470000044B054A1B681B6A002B08BF61
:103020001346D3F8EC0070470C0000207400002019
:1030300082B001B901A942B14BB113780B6012788B
:10304000101C18BF012002B070471046FBE76FF05C
:103050000100F8E710B5431E0A44914200D110BDAB
:1030600011F8014B03F8014FF7E7F8B5074614468E
:103070000E4621B91146BDE8F840FEF795BB22B9CE
:10308000FEF71CFF25462846F8BD00F021F8A042B7
:103090000FD221463846FEF787FB05460028F2D0BE
:1030A00031462246FFF7D6FF31463846FEF706FF87
:1030B000E9E73546E7E749B1FF2A85BF8A23036080
:1030C0000A704FF0FF3098BF0120704708467047E4
:1030D00051F8043C181F002BBCBF0B58C018704798
:1030E000F8B500BFF8BC08BC9E467047F8B500BFF5
:0830F000F8BC08BC9E467047C5
:1030F80000000000000000000102030406070809A0
:103108000000000001020304613200086432000874
:10311800673200081000002048656C6C6F206672EA
:103128006F6D20746865206F7468657220736964B8
:10313800650D0000207465737420666F72207374C7
:10314800646F75740D0A0000207465737420666FCF
:1031580072207374646572720D0A0000486F7720DC
:103168006F6C642061726520796F753F0D000000F7
:1031780025640000596F75722061676520697320A6
:1031880025640D0A00000000456E74657220796F91
:103198007572206669727374206E616D653A2000DD
:1031A80049206C696B6520796F7572207374796C2E
:1031B800653A200000000000000000000000000048
:1031C80000000000000000000000000000000000F7
:1031D80000000000000000000000000000000000E7
:1031E80000000000000000000000000000000000D7
:1031F80000000000000000000000000000000000C7
:1032080000000000000000000000000000000000B6
:1032180000000000232D302B2000686C4C006566F0
:10322800674546470030313233343536373839410F
:103238004243444546003031323334353637383925
:1032480061626364656600412D46612D66383930D8
:10325800313233343536375D002B2D00303000786D
:1032680058004300504F534958002E00002020209A
:10327800202020202020282828282820202020201E
:1032880020202020202020202020202020881010EE
:10329800101010101010101010101010100404044A
:1032A8000404040404040410101010101010414108
:1032B80041414141010101010101010101010101F6
:1032C800010101010101010110101010101042420A
:1032D80042424242020202020202020202020202C6
:1032E8000202020202020202101010102000000066
:1032F80000000000000000000000000000000000C6
:1033080000000000000000000000000000000000B5
:1033180000000000000000000000000000000000A5
:103328000000000000000000000000000000000095
:103338000000000000000000000000000000000085
:103348000000000000000000000000000000000075
:103358000000000000000000000000000000000065
:103368000000000000000000000000000000000055
:0833780098CEFF7F0100000068
:04338000C50100087B
:04338400A10100089B
:103388000024F400010000001000000010000020DC
:1033980000000000DC310008FC310008BC310008E6
:1033A8000000000000000000000000000000000015
:1033B8000000000000000000000000000000000005
:1033C80000000000000000000000000000000000F5
:1033D80000000000000000000000000000000000E5
:1033E80000000000000000000000000000000000D5
:1033F800ADDEFECA4300000000000000000000002F
:1034080000000000000000000000000000000000B4
:103418000000000043000000000000000000000061
:103428000000000000000000000000000000000094
:103438000000000043000000000000000000000041
:103448000000000000000000000000000000000074
:103458000000000043000000000000000000000021
:103468000000000000000000000000000000000054
:103478000000000043000000000000000000000001
:103488000000000000000000000000000000000034
:1034980000000000430000000000000000000000E1
:1034A8000000000000000000000000000000000014
:1034B80000000000430000000000000000000000C1
:1034C80000000000000000000000000000000000F4
:1034D80000000000B730000831300008000000008C
:1034E80074320008723200082132000821320008C4
:1034F8002132000821320008213200082132000858
:10350800213200082132000821320008FFFFFFFFA6
:10351800FFFFFFFFFFFFFFFFFFFF00000100415318
:1035280043494900000000000000000000000000BE
:1035380000000000000000000000000000004153EF
:10354800434949000000000000000000000000009E
:103558000000000000000000000000000000000063
:0400000508001431AA
:00000001FF
